{
  "transactions": [
    {
      "hash": "0x96b6b8e62eaf28a31621fcd9e4244e667a0014575f40deb500ba466310638942",
      "transactionType": "CALL",
      "contractName": null,
      "contractAddress": "0x0b9d5d9136855f6fec3c0993fee6e9ce8a297846",
      "function": "transfer(address,uint256)",
      "arguments": [
        "0x270831C0550ac9c5619E26238Ac9BFA02e2392Eb",
        "3000000000000000000"
      ],
      "transaction": {
        "from": "0x7e8d7bfd6cc6b05d056f2e46860d95038f2e3234",
        "to": "0x0b9d5d9136855f6fec3c0993fee6e9ce8a297846",
        "gas": "0x1287c",
        "value": "0x0",
        "input": "0xa9059cbb000000000000000000000000270831c0550ac9c5619e26238ac9bfa02e2392eb00000000000000000000000000000000000000000000000029a2241af62c0000",
        "nonce": "0x246",
        "chainId": "0xa869"
      },
      "additionalContracts": [],
      "isFixedGasLimit": false
    },
    {
      "hash": "0xfbe5bda21ac931de29207a4ea44696c84cd4261fde94f95c47b5db5ca01d7e80",
      "transactionType": "CALL",
      "contractName": null,
      "contractAddress": "0x270831c0550ac9c5619e26238ac9bfa02e2392eb",
      "function": "mint(address,uint256)",
      "arguments": [
        "0x270831C0550ac9c5619E26238Ac9BFA02e2392Eb",
        "1"
      ],
      "transaction": {
        "from": "0x7e8d7bfd6cc6b05d056f2e46860d95038f2e3234",
        "to": "0x270831c0550ac9c5619e26238ac9bfa02e2392eb",
        "gas": "0x172ee",
        "value": "0x0",
        "input": "0x40c10f19000000000000000000000000270831c0550ac9c5619e26238ac9bfa02e2392eb0000000000000000000000000000000000000000000000000000000000000001",
        "nonce": "0x247",
        "chainId": "0xa869"
      },
      "additionalContracts": [],
      "isFixedGasLimit": false
    },
    {
      "hash": "0x335f185817acc12890ed9d05b226ee14739034a82ca8ba312da7f91924b96853",
      "transactionType": "CALL",
      "contractName": null,
      "contractAddress": "0x270831c0550ac9c5619e26238ac9bfa02e2392eb",
      "function": "transferCrossChain(address,uint256,uint64)",
      "arguments": [
        "0x67d4af7871DF600F5A2c37D39dF1A8DEf5B6D9d1",
        "1",
        "16015286601757825753"
      ],
      "transaction": {
        "from": "0x7e8d7bfd6cc6b05d056f2e46860d95038f2e3234",
        "to": "0x270831c0550ac9c5619e26238ac9bfa02e2392eb",
        "gas": "0x3c048",
        "value": "0x0",
        "input": "0xb917bbcd00000000000000000000000067d4af7871df600f5a2c37d39df1a8def5b6d9d10000000000000000000000000000000000000000000000000000000000000001000000000000000000000000000000000000000000000000de41ba4fc9d91ad9",
        "nonce": "0x248",
        "chainId": "0xa869"
      },
      "additionalContracts": [],
      "isFixedGasLimit": false
    }
  ],
  "receipts": [
    {
      "status": "0x1",
      "cumulativeGasUsed": "0xcaba",
      "logs": [
        {
          "address": "0x0b9d5d9136855f6fec3c0993fee6e9ce8a297846",
          "topics": [
            "0xddf252ad1be2c89b69c2b068fc378daa952ba7f163c4a11628f55a4df523b3ef",
            "0x0000000000000000000000007e8d7bfd6cc6b05d056f2e46860d95038f2e3234",
            "0x000000000000000000000000270831c0550ac9c5619e26238ac9bfa02e2392eb"
          ],
          "data": "0x00000000000000000000000000000000000000000000000029a2241af62c0000",
          "blockHash": "0xa3b26502a0ae9777378569f4b977831a2c494430bdfc8f2ae62477f1afc29b3f",
          "blockNumber": "0x2296f33",
          "transactionHash": "0x96b6b8e62eaf28a31621fcd9e4244e667a0014575f40deb500ba466310638942",
          "transactionIndex": "0x0",
          "logIndex": "0x0",
          "removed": false
        }
      ],
      "logsBloom": "0x01000000000000000000000000000000000000000000000000000000000000000000000000000000000000000000000000000000000000000000000000000000000000004000000000000008000000000000000000801000000000000000000000000000000000000000000000000000000000000000000000000010000000000000000000000000000000000000000000000000000000000000000000000000000000000000000200000000000000000000000000100000000000000000000000000002000000000000000000000000040000000000000800000000000000000000000004000000000000000000000000000000000000000000000000000000",
      "type": "0x2",
      "transactionHash": "0x96b6b8e62eaf28a31621fcd9e4244e667a0014575f40deb500ba466310638942",
      "transactionIndex": "0x0",
      "blockHash": "0xa3b26502a0ae9777378569f4b977831a2c494430bdfc8f2ae62477f1afc29b3f",
      "blockNumber": "0x2296f33",
      "gasUsed": "0xcaba",
      "effectiveGasPrice": "0x6fc23ac00",
      "from": "0x7e8d7bfd6cc6b05d056f2e46860d95038f2e3234",
      "to": "0x0b9d5d9136855f6fec3c0993fee6e9ce8a297846",
      "contractAddress": null
    },
    {
      "status": "0x1",
      "cumulativeGasUsed": "0x10c8d",
      "logs": [
        {
          "address": "0x270831c0550ac9c5619e26238ac9bfa02e2392eb",
          "topics": [
            "0xddf252ad1be2c89b69c2b068fc378daa952ba7f163c4a11628f55a4df523b3ef",
            "0x0000000000000000000000000000000000000000000000000000000000000000",
            "0x000000000000000000000000270831c0550ac9c5619e26238ac9bfa02e2392eb",
            "0x0000000000000000000000000000000000000000000000000000000000000001"
          ],
          "data": "0x",
          "blockHash": "0x0c685e135e454fc3fb54dfa68bc7dfea33ac82f73cf45ffe4a2317f7e6a7e1ef",
          "blockNumber": "0x2296f34",
          "transactionHash": "0xfbe5bda21ac931de29207a4ea44696c84cd4261fde94f95c47b5db5ca01d7e80",
          "transactionIndex": "0x0",
          "logIndex": "0x0",
          "removed": false
        }
      ],
      "logsBloom": "0x00000000004000000000000000000000000000000000000000000000000000000000000000000000000000000000000000000000000000000000000000040000000000000000000000000008000000000000000000040000000000000000000000000000020000000000200000000800000000000000000000000010000000000000000000000000000000000000000000000000000000800000000000000000000000000000000000000000000000000000000000100000000000000000000000000002000000000000000000000000040000000000000000000000000060000000000004000000000000000000000000000000000000000000000000000000",
      "type": "0x2",
      "transactionHash": "0xfbe5bda21ac931de29207a4ea44696c84cd4261fde94f95c47b5db5ca01d7e80",
      "transactionIndex": "0x0",
      "blockHash": "0x0c685e135e454fc3fb54dfa68bc7dfea33ac82f73cf45ffe4a2317f7e6a7e1ef",
      "blockNumber": "0x2296f34",
      "gasUsed": "0x10c8d",
      "effectiveGasPrice": "0x6fc23ac00",
      "from": "0x7e8d7bfd6cc6b05d056f2e46860d95038f2e3234",
      "to": "0x270831c0550ac9c5619e26238ac9bfa02e2392eb",
      "contractAddress": null
    },
    {
      "status": "0x1",
      "cumulativeGasUsed": "0x3d568",
      "logs": [
        {
          "address": "0x0b9d5d9136855f6fec3c0993fee6e9ce8a297846",
          "topics": [
            "0x8c5be1e5ebec7d5bd14f71427d1e84f3dd0314c0f7b2291e5b200ac8c7c3b925",
            "0x000000000000000000000000270831c0550ac9c5619e26238ac9bfa02e2392eb",
            "0x000000000000000000000000f694e193200268f9a4868e4aa017a0118c9a8177"
          ],
          "data": "0x000000000000000000000000000000000000000000000000231869a6ea352dc9",
          "blockHash": "0x0c685e135e454fc3fb54dfa68bc7dfea33ac82f73cf45ffe4a2317f7e6a7e1ef",
          "blockNumber": "0x2296f34",
          "transactionHash": "0x335f185817acc12890ed9d05b226ee14739034a82ca8ba312da7f91924b96853",
          "transactionIndex": "0x1",
          "logIndex": "0x1",
          "removed": false
        },
        {
          "address": "0x270831c0550ac9c5619e26238ac9bfa02e2392eb",
          "topics": [
            "0xddf252ad1be2c89b69c2b068fc378daa952ba7f163c4a11628f55a4df523b3ef",
            "0x000000000000000000000000270831c0550ac9c5619e26238ac9bfa02e2392eb",
            "0x0000000000000000000000000000000000000000000000000000000000000000",
            "0x0000000000000000000000000000000000000000000000000000000000000001"
          ],
          "data": "0x",
          "blockHash": "0x0c685e135e454fc3fb54dfa68bc7dfea33ac82f73cf45ffe4a2317f7e6a7e1ef",
          "blockNumber": "0x2296f34",
          "transactionHash": "0x335f185817acc12890ed9d05b226ee14739034a82ca8ba312da7f91924b96853",
          "transactionIndex": "0x1",
          "logIndex": "0x2",
          "removed": false
        },
        {
          "address": "0x0b9d5d9136855f6fec3c0993fee6e9ce8a297846",
          "topics": [
            "0xddf252ad1be2c89b69c2b068fc378daa952ba7f163c4a11628f55a4df523b3ef",
            "0x000000000000000000000000270831c0550ac9c5619e26238ac9bfa02e2392eb",
            "0x00000000000000000000000075b9a75ee1ffef6be7c4f842a041de7c6153cf4e"
          ],
          "data": "0x000000000000000000000000000000000000000000000000231869a6ea352dc9",
          "blockHash": "0x0c685e135e454fc3fb54dfa68bc7dfea33ac82f73cf45ffe4a2317f7e6a7e1ef",
          "blockNumber": "0x2296f34",
          "transactionHash": "0x335f185817acc12890ed9d05b226ee14739034a82ca8ba312da7f91924b96853",
          "transactionIndex": "0x1",
          "logIndex": "0x3",
          "removed": false
        },
        {
          "address": "0x75b9a75ee1ffef6be7c4f842a041de7c6153cf4e",
          "topics": [
            "0xd0c3c799bf9e2639de44391e7f524d229b2b55f5b1ea94b2bf7da42f7243dddd"
          ],
          "data": "0x0000000000000000000000000000000000000000000000000000000000000020000000000000000000000000000000000000000000000000ccf0a31a221f3c9b000000000000000000000000270831c0550ac9c5619e26238ac9bfa02e2392eb00000000000000000000000067d4af7871df600f5a2c37d39df1a8def5b6d9d1000000000000000000000000000000000000000000000000000000000000006700000000000000000000000000000000000000000000000000000000000e7ef0000000000000000000000000000000000000000000000000000000000000000000000000000000000000000000000000000000000000000000000000000000010000000000000000000000000b9d5d9136855f6fec3c0993fee6e9ce8a297846000000000000000000000000000000000000000000000000231869a6ea352dc900000000000000000000000000000000000000000000000000000000000001a00000000000000000000000000000000000000000000000000000000000000220000000000000000000000000000000000000000000000000000000000000024071de9f63872283751aa0957d18ab5944d4b5ffd9dad353c0212ab50a9cc3fee6000000000000000000000000000000000000000000000000000000000000004440c10f190000000000000000000000007e8d7bfd6cc6b05d056f2e46860d95038f2e323400000000000000000000000000000000000000000000000000000000000000010000000000000000000000000000000000000000000000000000000000000000000000000000000000000000000000000000000000000000000000000000000000000000000000000000000000000000000000000000000000000000",
          "blockHash": "0x0c685e135e454fc3fb54dfa68bc7dfea33ac82f73cf45ffe4a2317f7e6a7e1ef",
          "blockNumber": "0x2296f34",
          "transactionHash": "0x335f185817acc12890ed9d05b226ee14739034a82ca8ba312da7f91924b96853",
          "transactionIndex": "0x1",
          "logIndex": "0x4",
          "removed": false
        }
      ],
      "logsBloom": "0x01000000004000000001000000000000000000000000000000000000000000000000000000000000000000000000000000000000000000000000000000240000000000000000000000000008000000000000000000040000000000000000000000000000020000000000200000000800000000000008000000000010000000000008000000000000000000000000000000000000000000800000000000000000020000000000000600000000000000000080000000100800000100100000000000000002000000000000000000000000040000000040000800000000000060000010000004000000000000000000000004000200000000000000000100000000",
      "type": "0x2",
      "transactionHash": "0x335f185817acc12890ed9d05b226ee14739034a82ca8ba312da7f91924b96853",
      "transactionIndex": "0x1",
      "blockHash": "0x0c685e135e454fc3fb54dfa68bc7dfea33ac82f73cf45ffe4a2317f7e6a7e1ef",
      "blockNumber": "0x2296f34",
      "gasUsed": "0x2c8db",
      "effectiveGasPrice": "0x6fc23ac00",
      "from": "0x7e8d7bfd6cc6b05d056f2e46860d95038f2e3234",
      "to": "0x270831c0550ac9c5619e26238ac9bfa02e2392eb",
      "contractAddress": null
    }
  ],
  "libraries": [],
  "pending": [],
  "returns": {},
  "timestamp": 1728802673,
  "chain": 43113,
  "commit": "25d7e58"
}