{
  "transactions": [
    {
      "hash": "0xf876b6c00dbf2e38db200e76b94815468391fc728391592a0f803adf6fa50f9e",
      "transactionType": "CALL",
      "contractName": null,
      "contractAddress": "0x0b9d5d9136855f6fec3c0993fee6e9ce8a297846",
      "function": "transfer(address,uint256)",
      "arguments": [
        "0x5F3BB7C1684BB03565aa2b201486017595a5021e",
        "2000000000000000000"
      ],
      "transaction": {
        "from": "0x7e8d7bfd6cc6b05d056f2e46860d95038f2e3234",
        "to": "0x0b9d5d9136855f6fec3c0993fee6e9ce8a297846",
        "gas": "0x1287c",
        "value": "0x0",
        "input": "0xa9059cbb0000000000000000000000005f3bb7c1684bb03565aa2b201486017595a5021e0000000000000000000000000000000000000000000000001bc16d674ec80000",
        "nonce": "0x228",
        "chainId": "0xa869"
      },
      "additionalContracts": [],
      "isFixedGasLimit": false
    },
    {
      "hash": "0x0a641177fd7f58ff174eafe1bb34df1c561d441482158259f1df047bc2360f89",
      "transactionType": "CALL",
      "contractName": null,
      "contractAddress": "0x5f3bb7c1684bb03565aa2b201486017595a5021e",
      "function": "mint(address,uint256)",
      "arguments": [
        "0x7E8d7BFd6cc6B05d056f2E46860D95038f2E3234",
        "1"
      ],
      "transaction": {
        "from": "0x7e8d7bfd6cc6b05d056f2e46860d95038f2e3234",
        "to": "0x5f3bb7c1684bb03565aa2b201486017595a5021e",
        "gas": "0x172ee",
        "value": "0x0",
        "input": "0x40c10f190000000000000000000000007e8d7bfd6cc6b05d056f2e46860d95038f2e32340000000000000000000000000000000000000000000000000000000000000001",
        "nonce": "0x229",
        "chainId": "0xa869"
      },
      "additionalContracts": [],
      "isFixedGasLimit": false
    },
    {
      "hash": "0xeef0607418dda06ffce11f5d9a22ed094593e12cb45c14041ecba8e9f7430e99",
      "transactionType": "CALL",
      "contractName": null,
      "contractAddress": "0x5f3bb7c1684bb03565aa2b201486017595a5021e",
      "function": "transferCrossChain(address,uint256,uint64)",
      "arguments": [
        "0x37dd1BF0cA1e63d69D1919Cb20B19cb1F94F20F0",
        "1",
        "16015286601757825753"
      ],
      "transaction": {
        "from": "0x7e8d7bfd6cc6b05d056f2e46860d95038f2e3234",
        "to": "0x5f3bb7c1684bb03565aa2b201486017595a5021e",
        "gas": "0x37f58",
        "value": "0x0",
        "input": "0xb917bbcd00000000000000000000000037dd1bf0ca1e63d69d1919cb20b19cb1f94f20f00000000000000000000000000000000000000000000000000000000000000001000000000000000000000000000000000000000000000000de41ba4fc9d91ad9",
        "nonce": "0x22a",
        "chainId": "0xa869"
      },
      "additionalContracts": [],
      "isFixedGasLimit": false
    }
  ],
  "receipts": [
    {
      "status": "0x1",
      "cumulativeGasUsed": "0xcaba",
      "logs": [
        {
          "address": "0x0b9d5d9136855f6fec3c0993fee6e9ce8a297846",
          "topics": [
            "0xddf252ad1be2c89b69c2b068fc378daa952ba7f163c4a11628f55a4df523b3ef",
            "0x0000000000000000000000007e8d7bfd6cc6b05d056f2e46860d95038f2e3234",
            "0x0000000000000000000000005f3bb7c1684bb03565aa2b201486017595a5021e"
          ],
          "data": "0x0000000000000000000000000000000000000000000000001bc16d674ec80000",
          "blockHash": "0xdfd5a709879602779e4c4fdd9dedeb5da5aa9eb72c9a5638693bf00bb4414381",
          "blockNumber": "0x2296cfe",
          "transactionHash": "0xf876b6c00dbf2e38db200e76b94815468391fc728391592a0f803adf6fa50f9e",
          "transactionIndex": "0x0",
          "logIndex": "0x0",
          "removed": false
        }
      ],
      "logsBloom": "0x01000000000000000000000000000000000008000000000000000000000000000000000000000000000000000000000000000000000000000000000000000000000000004000000000000008000000000000000000801000000000000000000000000000000000010000000000000000000000000000000000000010004000000000000000000000000000000000000000000000000000000000000000000000000000000000000200000000000000000000000000000000000000000000000000000002000000000000000000000000000000000000000800000000000000000000000000000000000000000000000000000000000000000000000000000000",
      "type": "0x2",
      "transactionHash": "0xf876b6c00dbf2e38db200e76b94815468391fc728391592a0f803adf6fa50f9e",
      "transactionIndex": "0x0",
      "blockHash": "0xdfd5a709879602779e4c4fdd9dedeb5da5aa9eb72c9a5638693bf00bb4414381",
      "blockNumber": "0x2296cfe",
      "gasUsed": "0xcaba",
      "effectiveGasPrice": "0x6fc23ac00",
      "from": "0x7e8d7bfd6cc6b05d056f2e46860d95038f2e3234",
      "to": "0x0b9d5d9136855f6fec3c0993fee6e9ce8a297846",
      "contractAddress": null
    },
    {
      "status": "0x1",
      "cumulativeGasUsed": "0x1d747",
      "logs": [
        {
          "address": "0x5f3bb7c1684bb03565aa2b201486017595a5021e",
          "topics": [
            "0xddf252ad1be2c89b69c2b068fc378daa952ba7f163c4a11628f55a4df523b3ef",
            "0x0000000000000000000000000000000000000000000000000000000000000000",
            "0x0000000000000000000000007e8d7bfd6cc6b05d056f2e46860d95038f2e3234",
            "0x0000000000000000000000000000000000000000000000000000000000000001"
          ],
          "data": "0x",
          "blockHash": "0xdfd5a709879602779e4c4fdd9dedeb5da5aa9eb72c9a5638693bf00bb4414381",
          "blockNumber": "0x2296cfe",
          "transactionHash": "0x0a641177fd7f58ff174eafe1bb34df1c561d441482158259f1df047bc2360f89",
          "transactionIndex": "0x1",
          "logIndex": "0x1",
          "removed": false
        }
      ],
      "logsBloom": "0x08000000000000000000000000000000000000000000000000000000000000000000000000000000000000000000000000000000000000000000000000040000000000004000000000000408000000000000000000841000000000000000000000000000020000000000000000000800000000000000000000000010000000000000000000000000000000000000000000000000000000000000000000000000000000000000000000000000000000000000000000000000000000000000000000000002000000000000000000000008000000000000000000000000000060000000000000000000000000000000000000000000000000000000000000000000",
      "type": "0x2",
      "transactionHash": "0x0a641177fd7f58ff174eafe1bb34df1c561d441482158259f1df047bc2360f89",
      "transactionIndex": "0x1",
      "blockHash": "0xdfd5a709879602779e4c4fdd9dedeb5da5aa9eb72c9a5638693bf00bb4414381",
      "blockNumber": "0x2296cfe",
      "gasUsed": "0x10c8d",
      "effectiveGasPrice": "0x6fc23ac00",
      "from": "0x7e8d7bfd6cc6b05d056f2e46860d95038f2e3234",
      "to": "0x5f3bb7c1684bb03565aa2b201486017595a5021e",
      "contractAddress": null
    },
    {
      "status": "0x1",
      "cumulativeGasUsed": "0x497be",
      "logs": [
        {
          "address": "0x0b9d5d9136855f6fec3c0993fee6e9ce8a297846",
          "topics": [
            "0x8c5be1e5ebec7d5bd14f71427d1e84f3dd0314c0f7b2291e5b200ac8c7c3b925",
            "0x0000000000000000000000005f3bb7c1684bb03565aa2b201486017595a5021e",
            "0x000000000000000000000000f694e193200268f9a4868e4aa017a0118c9a8177"
          ],
          "data": "0x0000000000000000000000000000000000000000000000001a23bb4ae163cbe0",
          "blockHash": "0xdfd5a709879602779e4c4fdd9dedeb5da5aa9eb72c9a5638693bf00bb4414381",
          "blockNumber": "0x2296cfe",
          "transactionHash": "0xeef0607418dda06ffce11f5d9a22ed094593e12cb45c14041ecba8e9f7430e99",
          "transactionIndex": "0x2",
          "logIndex": "0x2",
          "removed": false
        },
        {
          "address": "0x5f3bb7c1684bb03565aa2b201486017595a5021e",
          "topics": [
            "0xddf252ad1be2c89b69c2b068fc378daa952ba7f163c4a11628f55a4df523b3ef",
            "0x0000000000000000000000007e8d7bfd6cc6b05d056f2e46860d95038f2e3234",
            "0x0000000000000000000000000000000000000000000000000000000000000000",
            "0x0000000000000000000000000000000000000000000000000000000000000001"
          ],
          "data": "0x",
          "blockHash": "0xdfd5a709879602779e4c4fdd9dedeb5da5aa9eb72c9a5638693bf00bb4414381",
          "blockNumber": "0x2296cfe",
          "transactionHash": "0xeef0607418dda06ffce11f5d9a22ed094593e12cb45c14041ecba8e9f7430e99",
          "transactionIndex": "0x2",
          "logIndex": "0x3",
          "removed": false
        },
        {
          "address": "0x0b9d5d9136855f6fec3c0993fee6e9ce8a297846",
          "topics": [
            "0xddf252ad1be2c89b69c2b068fc378daa952ba7f163c4a11628f55a4df523b3ef",
            "0x0000000000000000000000005f3bb7c1684bb03565aa2b201486017595a5021e",
            "0x00000000000000000000000075b9a75ee1ffef6be7c4f842a041de7c6153cf4e"
          ],
          "data": "0x0000000000000000000000000000000000000000000000001a23bb4ae163cbe0",
          "blockHash": "0xdfd5a709879602779e4c4fdd9dedeb5da5aa9eb72c9a5638693bf00bb4414381",
          "blockNumber": "0x2296cfe",
          "transactionHash": "0xeef0607418dda06ffce11f5d9a22ed094593e12cb45c14041ecba8e9f7430e99",
          "transactionIndex": "0x2",
          "logIndex": "0x4",
          "removed": false
        },
        {
          "address": "0x75b9a75ee1ffef6be7c4f842a041de7c6153cf4e",
          "topics": [
            "0xd0c3c799bf9e2639de44391e7f524d229b2b55f5b1ea94b2bf7da42f7243dddd"
          ],
          "data": "0x0000000000000000000000000000000000000000000000000000000000000020000000000000000000000000000000000000000000000000ccf0a31a221f3c9b0000000000000000000000005f3bb7c1684bb03565aa2b201486017595a5021e00000000000000000000000037dd1bf0ca1e63d69d1919cb20b19cb1f94f20f0000000000000000000000000000000000000000000000000000000000000006000000000000000000000000000000000000000000000000000000000000e7ef0000000000000000000000000000000000000000000000000000000000000000000000000000000000000000000000000000000000000000000000000000000010000000000000000000000000b9d5d9136855f6fec3c0993fee6e9ce8a2978460000000000000000000000000000000000000000000000001a23bb4ae163cbe000000000000000000000000000000000000000000000000000000000000001a0000000000000000000000000000000000000000000000000000000000000022000000000000000000000000000000000000000000000000000000000000002401e29e554beae4785ab14aab72112c6feddbc799baa8fd4d799ee246e2c6dba6300000000000000000000000000000000000000000000000000000000000000496d696e7428616464726573732c75696e743235362937dd1bf0ca1e63d69d1919cb20b19cb1f94f20f00000000000000000000000000000000000000000000000000000000000000001000000000000000000000000000000000000000000000000000000000000000000000000000000000000000000000000000000000000000000000000000000000000000000000000000000000000000000000000000000",
          "blockHash": "0xdfd5a709879602779e4c4fdd9dedeb5da5aa9eb72c9a5638693bf00bb4414381",
          "blockNumber": "0x2296cfe",
          "transactionHash": "0xeef0607418dda06ffce11f5d9a22ed094593e12cb45c14041ecba8e9f7430e99",
          "transactionIndex": "0x2",
          "logIndex": "0x5",
          "removed": false
        }
      ],
      "logsBloom": "0x09000000000000000001000000000000000008000000000000000000000000000000000000000000000000000000000000000000000000000000000000240000000000004000000000000408000000000000000000841000000000000000000000000000020000010000000000000800000000000008000000000010004000000008000000000000000000000000000000000000000000000000000000000000020000000000000600000000000000000080000000000800000100100000000000000002000000000000000000000008000000000040000800000000000060000010000000000000000000000000000004000200000000000000000100000000",
      "type": "0x2",
      "transactionHash": "0xeef0607418dda06ffce11f5d9a22ed094593e12cb45c14041ecba8e9f7430e99",
      "transactionIndex": "0x2",
      "blockHash": "0xdfd5a709879602779e4c4fdd9dedeb5da5aa9eb72c9a5638693bf00bb4414381",
      "blockNumber": "0x2296cfe",
      "gasUsed": "0x2c077",
      "effectiveGasPrice": "0x6fc23ac00",
      "from": "0x7e8d7bfd6cc6b05d056f2e46860d95038f2e3234",
      "to": "0x5f3bb7c1684bb03565aa2b201486017595a5021e",
      "contractAddress": null
    }
  ],
  "libraries": [],
  "pending": [],
  "returns": {},
  "timestamp": 1728796824,
  "chain": 43113,
  "commit": "25d7e58"
}