{
  "transactions": [
    {
      "hash": "0x02eacb242af29a8d9220a0204931d69def455795dd72fad23cf89b300e3b03dc",
      "transactionType": "CALL",
      "contractName": null,
      "contractAddress": "0x0b9d5d9136855f6fec3c0993fee6e9ce8a297846",
      "function": "transfer(address,uint256)",
      "arguments": [
        "0x45D889BD147c269cEB594fA6adc120eFF789506a",
        "3000000000000000000"
      ],
      "transaction": {
        "from": "0x7e8d7bfd6cc6b05d056f2e46860d95038f2e3234",
        "to": "0x0b9d5d9136855f6fec3c0993fee6e9ce8a297846",
        "gas": "0x1287c",
        "value": "0x0",
        "input": "0xa9059cbb00000000000000000000000045d889bd147c269ceb594fa6adc120eff789506a00000000000000000000000000000000000000000000000029a2241af62c0000",
        "nonce": "0x23a",
        "chainId": "0xa869"
      },
      "additionalContracts": [],
      "isFixedGasLimit": false
    },
    {
      "hash": "0xe0274e32440bbdad181317045fdf5577d7eded2bbeda21fc40fdda71003f6af8",
      "transactionType": "CALL",
      "contractName": null,
      "contractAddress": "0x45d889bd147c269ceb594fa6adc120eff789506a",
      "function": "mint(address,uint256)",
      "arguments": [
        "0x45D889BD147c269cEB594fA6adc120eFF789506a",
        "1"
      ],
      "transaction": {
        "from": "0x7e8d7bfd6cc6b05d056f2e46860d95038f2e3234",
        "to": "0x45d889bd147c269ceb594fa6adc120eff789506a",
        "gas": "0x172e6",
        "value": "0x0",
        "input": "0x40c10f1900000000000000000000000045d889bd147c269ceb594fa6adc120eff789506a0000000000000000000000000000000000000000000000000000000000000001",
        "nonce": "0x23b",
        "chainId": "0xa869"
      },
      "additionalContracts": [],
      "isFixedGasLimit": false
    },
    {
      "hash": "0xf628e3dffd7cb54c37114d8532c5f3963cf7b537d423de41d36a6a55c10c52b0",
      "transactionType": "CALL",
      "contractName": null,
      "contractAddress": "0x45d889bd147c269ceb594fa6adc120eff789506a",
      "function": "transferCrossChain(address,uint256,uint64)",
      "arguments": [
        "0xa8F276eB577775499ef61955b09d377D68c658BE",
        "1",
        "16015286601757825753"
      ],
      "transaction": {
        "from": "0x7e8d7bfd6cc6b05d056f2e46860d95038f2e3234",
        "to": "0x45d889bd147c269ceb594fa6adc120eff789506a",
        "gas": "0x38ae7",
        "value": "0x0",
        "input": "0xb917bbcd000000000000000000000000a8f276eb577775499ef61955b09d377d68c658be0000000000000000000000000000000000000000000000000000000000000001000000000000000000000000000000000000000000000000de41ba4fc9d91ad9",
        "nonce": "0x23c",
        "chainId": "0xa869"
      },
      "additionalContracts": [],
      "isFixedGasLimit": false
    }
  ],
  "receipts": [
    {
      "status": "0x1",
      "cumulativeGasUsed": "0xcaba",
      "logs": [
        {
          "address": "0x0b9d5d9136855f6fec3c0993fee6e9ce8a297846",
          "topics": [
            "0xddf252ad1be2c89b69c2b068fc378daa952ba7f163c4a11628f55a4df523b3ef",
            "0x0000000000000000000000007e8d7bfd6cc6b05d056f2e46860d95038f2e3234",
            "0x00000000000000000000000045d889bd147c269ceb594fa6adc120eff789506a"
          ],
          "data": "0x00000000000000000000000000000000000000000000000029a2241af62c0000",
          "blockHash": "0x82529ef646a2a1ac6d7af2292023009c640e80f06884db2b25480f2f6e67c711",
          "blockNumber": "0x2296e9b",
          "transactionHash": "0x02eacb242af29a8d9220a0204931d69def455795dd72fad23cf89b300e3b03dc",
          "transactionIndex": "0x0",
          "logIndex": "0x0",
          "removed": false
        }
      ],
      "logsBloom": "0x01000000000000000000000000000000000000000000000002000000000000000000000000000000000000000000000000000000000000000000000000000000000000004000000000000008000000000000000000801000000000000000000000000000000000000000000000000000000000000000000000000010200000000000000000000000000000000040000000000000000000000000000000000000000000000000000200000000000000000000000000000000000000000000000000000002000000000000000000000000000000000000000800000000000000000000000000000000000000000000000000000000000000000000000000000000",
      "type": "0x2",
      "transactionHash": "0x02eacb242af29a8d9220a0204931d69def455795dd72fad23cf89b300e3b03dc",
      "transactionIndex": "0x0",
      "blockHash": "0x82529ef646a2a1ac6d7af2292023009c640e80f06884db2b25480f2f6e67c711",
      "blockNumber": "0x2296e9b",
      "gasUsed": "0xcaba",
      "effectiveGasPrice": "0x6fc23ac00",
      "from": "0x7e8d7bfd6cc6b05d056f2e46860d95038f2e3234",
      "to": "0x0b9d5d9136855f6fec3c0993fee6e9ce8a297846",
      "contractAddress": null
    },
    {
      "status": "0x1",
      "cumulativeGasUsed": "0x1d741",
      "logs": [
        {
          "address": "0x45d889bd147c269ceb594fa6adc120eff789506a",
          "topics": [
            "0xddf252ad1be2c89b69c2b068fc378daa952ba7f163c4a11628f55a4df523b3ef",
            "0x0000000000000000000000000000000000000000000000000000000000000000",
            "0x00000000000000000000000045d889bd147c269ceb594fa6adc120eff789506a",
            "0x0000000000000000000000000000000000000000000000000000000000000001"
          ],
          "data": "0x",
          "blockHash": "0x82529ef646a2a1ac6d7af2292023009c640e80f06884db2b25480f2f6e67c711",
          "blockNumber": "0x2296e9b",
          "transactionHash": "0xe0274e32440bbdad181317045fdf5577d7eded2bbeda21fc40fdda71003f6af8",
          "transactionIndex": "0x1",
          "logIndex": "0x1",
          "removed": false
        }
      ],
      "logsBloom": "0x00000000000000000000000000000000000000000000000002000000000000000000000080000000000000000000000000000000000000000000000000040000000000000000000000000008000000000000000000040000000000000000000000000200020000000000000000000800000000000000000000000010200000000000000000000000000000000040040000000000000000000000000000000000000000000000000000000000000000000000000000000000000000000000000000000002000000000000000000000000000000000000000000000000000060000000000000000000000000000000000000000000000000000000000000000000",
      "type": "0x2",
      "transactionHash": "0xe0274e32440bbdad181317045fdf5577d7eded2bbeda21fc40fdda71003f6af8",
      "transactionIndex": "0x1",
      "blockHash": "0x82529ef646a2a1ac6d7af2292023009c640e80f06884db2b25480f2f6e67c711",
      "blockNumber": "0x2296e9b",
      "gasUsed": "0x10c87",
      "effectiveGasPrice": "0x6fc23ac00",
      "from": "0x7e8d7bfd6cc6b05d056f2e46860d95038f2e3234",
      "to": "0x45d889bd147c269ceb594fa6adc120eff789506a",
      "contractAddress": null
    },
    {
      "status": "0x1",
      "cumulativeGasUsed": "0x2c8d5",
      "logs": [
        {
          "address": "0x0b9d5d9136855f6fec3c0993fee6e9ce8a297846",
          "topics": [
            "0x8c5be1e5ebec7d5bd14f71427d1e84f3dd0314c0f7b2291e5b200ac8c7c3b925",
            "0x00000000000000000000000045d889bd147c269ceb594fa6adc120eff789506a",
            "0x000000000000000000000000f694e193200268f9a4868e4aa017a0118c9a8177"
          ],
          "data": "0x000000000000000000000000000000000000000000000000199c0dfe47bd62e0",
          "blockHash": "0xbdb309f4b468a19b2822aa52d9d5566b53ec62b2a4a7bc3003aea98a1b9c0d06",
          "blockNumber": "0x2296e9c",
          "transactionHash": "0xf628e3dffd7cb54c37114d8532c5f3963cf7b537d423de41d36a6a55c10c52b0",
          "transactionIndex": "0x0",
          "logIndex": "0x0",
          "removed": false
        },
        {
          "address": "0x45d889bd147c269ceb594fa6adc120eff789506a",
          "topics": [
            "0xddf252ad1be2c89b69c2b068fc378daa952ba7f163c4a11628f55a4df523b3ef",
            "0x00000000000000000000000045d889bd147c269ceb594fa6adc120eff789506a",
            "0x0000000000000000000000000000000000000000000000000000000000000000",
            "0x0000000000000000000000000000000000000000000000000000000000000001"
          ],
          "data": "0x",
          "blockHash": "0xbdb309f4b468a19b2822aa52d9d5566b53ec62b2a4a7bc3003aea98a1b9c0d06",
          "blockNumber": "0x2296e9c",
          "transactionHash": "0xf628e3dffd7cb54c37114d8532c5f3963cf7b537d423de41d36a6a55c10c52b0",
          "transactionIndex": "0x0",
          "logIndex": "0x1",
          "removed": false
        },
        {
          "address": "0x0b9d5d9136855f6fec3c0993fee6e9ce8a297846",
          "topics": [
            "0xddf252ad1be2c89b69c2b068fc378daa952ba7f163c4a11628f55a4df523b3ef",
            "0x00000000000000000000000045d889bd147c269ceb594fa6adc120eff789506a",
            "0x00000000000000000000000075b9a75ee1ffef6be7c4f842a041de7c6153cf4e"
          ],
          "data": "0x000000000000000000000000000000000000000000000000199c0dfe47bd62e0",
          "blockHash": "0xbdb309f4b468a19b2822aa52d9d5566b53ec62b2a4a7bc3003aea98a1b9c0d06",
          "blockNumber": "0x2296e9c",
          "transactionHash": "0xf628e3dffd7cb54c37114d8532c5f3963cf7b537d423de41d36a6a55c10c52b0",
          "transactionIndex": "0x0",
          "logIndex": "0x2",
          "removed": false
        },
        {
          "address": "0x75b9a75ee1ffef6be7c4f842a041de7c6153cf4e",
          "topics": [
            "0xd0c3c799bf9e2639de44391e7f524d229b2b55f5b1ea94b2bf7da42f7243dddd"
          ],
          "data": "0x0000000000000000000000000000000000000000000000000000000000000020000000000000000000000000000000000000000000000000ccf0a31a221f3c9b00000000000000000000000045d889bd147c269ceb594fa6adc120eff789506a000000000000000000000000a8f276eb577775499ef61955b09d377d68c658be000000000000000000000000000000000000000000000000000000000000006400000000000000000000000000000000000000000000000000000000000e7ef0000000000000000000000000000000000000000000000000000000000000000000000000000000000000000000000000000000000000000000000000000000010000000000000000000000000b9d5d9136855f6fec3c0993fee6e9ce8a297846000000000000000000000000000000000000000000000000199c0dfe47bd62e000000000000000000000000000000000000000000000000000000000000001a000000000000000000000000000000000000000000000000000000000000002200000000000000000000000000000000000000000000000000000000000000240aacc10de2c7fbe6b2477c0219c68f6f414abc97210b173b3ef627f65a4d4431e000000000000000000000000000000000000000000000000000000000000004440c10f190000000000000000000000007e8d7bfd6cc6b05d056f2e46860d95038f2e323400000000000000000000000000000000000000000000000000000000000000010000000000000000000000000000000000000000000000000000000000000000000000000000000000000000000000000000000000000000000000000000000000000000000000000000000000000000000000000000000000000000",
          "blockHash": "0xbdb309f4b468a19b2822aa52d9d5566b53ec62b2a4a7bc3003aea98a1b9c0d06",
          "blockNumber": "0x2296e9c",
          "transactionHash": "0xf628e3dffd7cb54c37114d8532c5f3963cf7b537d423de41d36a6a55c10c52b0",
          "transactionIndex": "0x0",
          "logIndex": "0x3",
          "removed": false
        }
      ],
      "logsBloom": "0x01000000000000000001000000000000000000000000000002000000000000000000000080000000000000000000000000000000000000000000000000240000000000000000000000000008000000000000000000040000000000000000000000000200020000000000000000000800000000000008000000000010200000000008000000000000000000000040040000000000000000000000000000000000020000000000000600000000000000000080000000000800000100100000000000000002000000000000000000000000000000000040000800000000000060000010000000000000000000000000000004000200000000000000000100000000",
      "type": "0x2",
      "transactionHash": "0xf628e3dffd7cb54c37114d8532c5f3963cf7b537d423de41d36a6a55c10c52b0",
      "transactionIndex": "0x0",
      "blockHash": "0xbdb309f4b468a19b2822aa52d9d5566b53ec62b2a4a7bc3003aea98a1b9c0d06",
      "blockNumber": "0x2296e9c",
      "gasUsed": "0x2c8d5",
      "effectiveGasPrice": "0x6fc23ac00",
      "from": "0x7e8d7bfd6cc6b05d056f2e46860d95038f2e3234",
      "to": "0x45d889bd147c269ceb594fa6adc120eff789506a",
      "contractAddress": null
    }
  ],
  "libraries": [],
  "pending": [],
  "returns": {},
  "timestamp": 1728800923,
  "chain": 43113,
  "commit": "25d7e58"
}