{
  "transactions": [
    {
      "hash": "0x90edfde69cbdb58ba19b849ae18e509f7851e6cbbe076489990f6ef3916fbfad",
      "transactionType": "CALL",
      "contractName": null,
      "contractAddress": "0x0b9d5d9136855f6fec3c0993fee6e9ce8a297846",
      "function": "transfer(address,uint256)",
      "arguments": [
        "0x59C3a88C5f98598842242464284c1DAA499393B7",
        "3000000000000000000"
      ],
      "transaction": {
        "from": "0x7e8d7bfd6cc6b05d056f2e46860d95038f2e3234",
        "to": "0x0b9d5d9136855f6fec3c0993fee6e9ce8a297846",
        "gas": "0x1287c",
        "value": "0x0",
        "input": "0xa9059cbb00000000000000000000000059c3a88c5f98598842242464284c1daa499393b700000000000000000000000000000000000000000000000029a2241af62c0000",
        "nonce": "0x22c",
        "chainId": "0xa869"
      },
      "additionalContracts": [],
      "isFixedGasLimit": false
    },
    {
      "hash": "0xe96546f3c1606a7cc9d7e8a564e031c59a8ede5547f1c7c9d2b381c6da36dbb3",
      "transactionType": "CALL",
      "contractName": null,
      "contractAddress": "0x59c3a88c5f98598842242464284c1daa499393b7",
      "function": "mint(address,uint256)",
      "arguments": [
        "0x7E8d7BFd6cc6B05d056f2E46860D95038f2E3234",
        "1"
      ],
      "transaction": {
        "from": "0x7e8d7bfd6cc6b05d056f2e46860d95038f2e3234",
        "to": "0x59c3a88c5f98598842242464284c1daa499393b7",
        "gas": "0x172e6",
        "value": "0x0",
        "input": "0x40c10f190000000000000000000000007e8d7bfd6cc6b05d056f2e46860d95038f2e32340000000000000000000000000000000000000000000000000000000000000001",
        "nonce": "0x22d",
        "chainId": "0xa869"
      },
      "additionalContracts": [],
      "isFixedGasLimit": false
    },
    {
      "hash": "0xec4bffff91f543bda306959903872e11d7a12132748782f314233c88e8535cf4",
      "transactionType": "CALL",
      "contractName": null,
      "contractAddress": "0x59c3a88c5f98598842242464284c1daa499393b7",
      "function": "transferCrossChain(address,uint256,uint64)",
      "arguments": [
        "0x14593546bbb4C553C5F7fFF0912297870d5B038D",
        "1",
        "16015286601757825753"
      ],
      "transaction": {
        "from": "0x7e8d7bfd6cc6b05d056f2e46860d95038f2e3234",
        "to": "0x59c3a88c5f98598842242464284c1daa499393b7",
        "gas": "0x3b3fa",
        "value": "0x0",
        "input": "0xb917bbcd00000000000000000000000014593546bbb4c553c5f7fff0912297870d5b038d0000000000000000000000000000000000000000000000000000000000000001000000000000000000000000000000000000000000000000de41ba4fc9d91ad9",
        "nonce": "0x22e",
        "chainId": "0xa869"
      },
      "additionalContracts": [],
      "isFixedGasLimit": false
    }
  ],
  "receipts": [
    {
      "status": "0x1",
      "cumulativeGasUsed": "0xcaba",
      "logs": [
        {
          "address": "0x0b9d5d9136855f6fec3c0993fee6e9ce8a297846",
          "topics": [
            "0xddf252ad1be2c89b69c2b068fc378daa952ba7f163c4a11628f55a4df523b3ef",
            "0x0000000000000000000000007e8d7bfd6cc6b05d056f2e46860d95038f2e3234",
            "0x00000000000000000000000059c3a88c5f98598842242464284c1daa499393b7"
          ],
          "data": "0x00000000000000000000000000000000000000000000000029a2241af62c0000",
          "blockHash": "0x722aed9482e5825d9dc8b986efff78be5aac7d4db75e5a9bac86058e8aa0e1bf",
          "blockNumber": "0x2296d91",
          "transactionHash": "0x90edfde69cbdb58ba19b849ae18e509f7851e6cbbe076489990f6ef3916fbfad",
          "transactionIndex": "0x0",
          "logIndex": "0x0",
          "removed": false
        }
      ],
      "logsBloom": "0x01000000000000000000000000000000000000000000000000000000000000000000000000000000000000000000000000000000000000000000000000004000000000006000000000000008000000000000000000801000000000000000000008000000000000000000000000000000000000000000000000000010000000000000000000000000000000000000000000000000000000000000000000000000000000000000000200000000000000000000000000000000000000000000000000000002000000000000000000000000000000000000000800000000000000000000000000000000000000000000000000000000000000000000000000000000",
      "type": "0x2",
      "transactionHash": "0x90edfde69cbdb58ba19b849ae18e509f7851e6cbbe076489990f6ef3916fbfad",
      "transactionIndex": "0x0",
      "blockHash": "0x722aed9482e5825d9dc8b986efff78be5aac7d4db75e5a9bac86058e8aa0e1bf",
      "blockNumber": "0x2296d91",
      "gasUsed": "0xcaba",
      "effectiveGasPrice": "0x8c33a6f08",
      "from": "0x7e8d7bfd6cc6b05d056f2e46860d95038f2e3234",
      "to": "0x0b9d5d9136855f6fec3c0993fee6e9ce8a297846",
      "contractAddress": null
    },
    {
      "status": "0x1",
      "cumulativeGasUsed": "0x1d741",
      "logs": [
        {
          "address": "0x59c3a88c5f98598842242464284c1daa499393b7",
          "topics": [
            "0xddf252ad1be2c89b69c2b068fc378daa952ba7f163c4a11628f55a4df523b3ef",
            "0x0000000000000000000000000000000000000000000000000000000000000000",
            "0x0000000000000000000000007e8d7bfd6cc6b05d056f2e46860d95038f2e3234",
            "0x0000000000000000000000000000000000000000000000000000000000000001"
          ],
          "data": "0x",
          "blockHash": "0x722aed9482e5825d9dc8b986efff78be5aac7d4db75e5a9bac86058e8aa0e1bf",
          "blockNumber": "0x2296d91",
          "transactionHash": "0xe96546f3c1606a7cc9d7e8a564e031c59a8ede5547f1c7c9d2b381c6da36dbb3",
          "transactionIndex": "0x1",
          "logIndex": "0x1",
          "removed": false
        }
      ],
      "logsBloom": "0x00000000000000000000000000000000000000000000000000000000000000000000000000000000000000000000000000000000000000000000000000040000000000004000000000000008000000000000100000851000000000000000000000000000020000000000000000000800000000000000000000000010000000000000000000000000000000000000000000000000000000000000000000000000000000000000000000000000000000000000000000000000000000000000000000000002000000000000000000000000000000000400000000000000000060000000000000000000000000000000000000000000000000000000000000000000",
      "type": "0x2",
      "transactionHash": "0xe96546f3c1606a7cc9d7e8a564e031c59a8ede5547f1c7c9d2b381c6da36dbb3",
      "transactionIndex": "0x1",
      "blockHash": "0x722aed9482e5825d9dc8b986efff78be5aac7d4db75e5a9bac86058e8aa0e1bf",
      "blockNumber": "0x2296d91",
      "gasUsed": "0x10c87",
      "effectiveGasPrice": "0x8c33a6f08",
      "from": "0x7e8d7bfd6cc6b05d056f2e46860d95038f2e3234",
      "to": "0x59c3a88c5f98598842242464284c1daa499393b7",
      "contractAddress": null
    },
    {
      "status": "0x1",
      "cumulativeGasUsed": "0x497b2",
      "logs": [
        {
          "address": "0x0b9d5d9136855f6fec3c0993fee6e9ce8a297846",
          "topics": [
            "0x8c5be1e5ebec7d5bd14f71427d1e84f3dd0314c0f7b2291e5b200ac8c7c3b925",
            "0x00000000000000000000000059c3a88c5f98598842242464284c1daa499393b7",
            "0x000000000000000000000000f694e193200268f9a4868e4aa017a0118c9a8177"
          ],
          "data": "0x0000000000000000000000000000000000000000000000001f53a36f20579f57",
          "blockHash": "0x722aed9482e5825d9dc8b986efff78be5aac7d4db75e5a9bac86058e8aa0e1bf",
          "blockNumber": "0x2296d91",
          "transactionHash": "0xec4bffff91f543bda306959903872e11d7a12132748782f314233c88e8535cf4",
          "transactionIndex": "0x2",
          "logIndex": "0x2",
          "removed": false
        },
        {
          "address": "0x59c3a88c5f98598842242464284c1daa499393b7",
          "topics": [
            "0xddf252ad1be2c89b69c2b068fc378daa952ba7f163c4a11628f55a4df523b3ef",
            "0x0000000000000000000000007e8d7bfd6cc6b05d056f2e46860d95038f2e3234",
            "0x0000000000000000000000000000000000000000000000000000000000000000",
            "0x0000000000000000000000000000000000000000000000000000000000000001"
          ],
          "data": "0x",
          "blockHash": "0x722aed9482e5825d9dc8b986efff78be5aac7d4db75e5a9bac86058e8aa0e1bf",
          "blockNumber": "0x2296d91",
          "transactionHash": "0xec4bffff91f543bda306959903872e11d7a12132748782f314233c88e8535cf4",
          "transactionIndex": "0x2",
          "logIndex": "0x3",
          "removed": false
        },
        {
          "address": "0x0b9d5d9136855f6fec3c0993fee6e9ce8a297846",
          "topics": [
            "0xddf252ad1be2c89b69c2b068fc378daa952ba7f163c4a11628f55a4df523b3ef",
            "0x00000000000000000000000059c3a88c5f98598842242464284c1daa499393b7",
            "0x00000000000000000000000075b9a75ee1ffef6be7c4f842a041de7c6153cf4e"
          ],
          "data": "0x0000000000000000000000000000000000000000000000001f53a36f20579f57",
          "blockHash": "0x722aed9482e5825d9dc8b986efff78be5aac7d4db75e5a9bac86058e8aa0e1bf",
          "blockNumber": "0x2296d91",
          "transactionHash": "0xec4bffff91f543bda306959903872e11d7a12132748782f314233c88e8535cf4",
          "transactionIndex": "0x2",
          "logIndex": "0x4",
          "removed": false
        },
        {
          "address": "0x75b9a75ee1ffef6be7c4f842a041de7c6153cf4e",
          "topics": [
            "0xd0c3c799bf9e2639de44391e7f524d229b2b55f5b1ea94b2bf7da42f7243dddd"
          ],
          "data": "0x0000000000000000000000000000000000000000000000000000000000000020000000000000000000000000000000000000000000000000ccf0a31a221f3c9b00000000000000000000000059c3a88c5f98598842242464284c1daa499393b700000000000000000000000014593546bbb4c553c5f7fff0912297870d5b038d000000000000000000000000000000000000000000000000000000000000006100000000000000000000000000000000000000000000000000000000000e7ef0000000000000000000000000000000000000000000000000000000000000000000000000000000000000000000000000000000000000000000000000000000010000000000000000000000000b9d5d9136855f6fec3c0993fee6e9ce8a2978460000000000000000000000000000000000000000000000001f53a36f20579f5700000000000000000000000000000000000000000000000000000000000001a000000000000000000000000000000000000000000000000000000000000002200000000000000000000000000000000000000000000000000000000000000240a573768a13795ef08033cc5d2f8007802f0b7fc07bc8bb0e6fa95cbf849b967a00000000000000000000000000000000000000000000000000000000000000496d696e7428616464726573732c75696e743235362914593546bbb4c553c5f7fff0912297870d5b038d0000000000000000000000000000000000000000000000000000000000000001000000000000000000000000000000000000000000000000000000000000000000000000000000000000000000000000000000000000000000000000000000000000000000000000000000000000000000000000000000",
          "blockHash": "0x722aed9482e5825d9dc8b986efff78be5aac7d4db75e5a9bac86058e8aa0e1bf",
          "blockNumber": "0x2296d91",
          "transactionHash": "0xec4bffff91f543bda306959903872e11d7a12132748782f314233c88e8535cf4",
          "transactionIndex": "0x2",
          "logIndex": "0x5",
          "removed": false
        }
      ],
      "logsBloom": "0x01000000000000000001000000000000000000000000000000000000000000000000000000000000000000000000000000000000000000000000000000244000000000006000000000000008000000000000100000851000000000000000000008000000020000000000000000000800000000000008000000000010000000000008000000000000000000000000000000000000000000000000000000000000020000000000000600000000000000000080000000000800000100100000000000000002000000000000000000000000000000000440000800000000000060000010000000000000000000000000000004000200000000000000000100000000",
      "type": "0x2",
      "transactionHash": "0xec4bffff91f543bda306959903872e11d7a12132748782f314233c88e8535cf4",
      "transactionIndex": "0x2",
      "blockHash": "0x722aed9482e5825d9dc8b986efff78be5aac7d4db75e5a9bac86058e8aa0e1bf",
      "blockNumber": "0x2296d91",
      "gasUsed": "0x2c071",
      "effectiveGasPrice": "0x8c33a6f08",
      "from": "0x7e8d7bfd6cc6b05d056f2e46860d95038f2e3234",
      "to": "0x59c3a88c5f98598842242464284c1daa499393b7",
      "contractAddress": null
    }
  ],
  "libraries": [],
  "pending": [],
  "returns": {},
  "timestamp": 1728798359,
  "chain": 43113,
  "commit": "25d7e58"
}