{
  "transactions": [
    {
      "hash": "0x4d7347a3700993a0a25149f7b76b399122110bf34c2e61f8c5dd2a8fc059adb2",
      "transactionType": "CALL",
      "contractName": null,
      "contractAddress": "0x0b9d5d9136855f6fec3c0993fee6e9ce8a297846",
      "function": "transfer(address,uint256)",
      "arguments": [
        "0x2aE0783a0df22e715F1e1d0dd45b9A9320170025",
        "3000000000000000000"
      ],
      "transaction": {
        "from": "0x7e8d7bfd6cc6b05d056f2e46860d95038f2e3234",
        "to": "0x0b9d5d9136855f6fec3c0993fee6e9ce8a297846",
        "gas": "0x117f2",
        "value": "0x0",
        "input": "0xa9059cbb0000000000000000000000002ae0783a0df22e715f1e1d0dd45b9a932017002500000000000000000000000000000000000000000000000029a2241af62c0000",
        "nonce": "0x232",
        "chainId": "0xa869"
      },
      "additionalContracts": [],
      "isFixedGasLimit": false
    },
    {
      "hash": "0x5e868b41803b3fe99cb0161baf72b6ef2270406abfaca4e9eebf0f2e221e008b",
      "transactionType": "CALL",
      "contractName": null,
      "contractAddress": "0x2ae0783a0df22e715f1e1d0dd45b9a9320170025",
      "function": "mint(address,uint256)",
      "arguments": [
        "0x2aE0783a0df22e715F1e1d0dd45b9A9320170025",
        "1"
      ],
      "transaction": {
        "from": "0x7e8d7bfd6cc6b05d056f2e46860d95038f2e3234",
        "to": "0x2ae0783a0df22e715f1e1d0dd45b9a9320170025",
        "gas": "0x188a6",
        "value": "0x0",
        "input": "0x40c10f190000000000000000000000002ae0783a0df22e715f1e1d0dd45b9a93201700250000000000000000000000000000000000000000000000000000000000000001",
        "nonce": "0x233",
        "chainId": "0xa869"
      },
      "additionalContracts": [],
      "isFixedGasLimit": false
    },
    {
      "hash": "0x36c58617d0b4ed907b41e95932fe92c7cc4f4ed2bf6c9521da93561ab384d399",
      "transactionType": "CALL",
      "contractName": null,
      "contractAddress": "0x2ae0783a0df22e715f1e1d0dd45b9a9320170025",
      "function": "transferCrossChain(address,uint256,uint64)",
      "arguments": [
        "0xBa0D9Ea5250643Ae8fcB62A59f573bBe79b8061d",
        "1",
        "16015286601757825753"
      ],
      "transaction": {
        "from": "0x7e8d7bfd6cc6b05d056f2e46860d95038f2e3234",
        "to": "0x2ae0783a0df22e715f1e1d0dd45b9a9320170025",
        "gas": "0x38abc",
        "value": "0x0",
        "input": "0xb917bbcd000000000000000000000000ba0d9ea5250643ae8fcb62a59f573bbe79b8061d0000000000000000000000000000000000000000000000000000000000000001000000000000000000000000000000000000000000000000de41ba4fc9d91ad9",
        "nonce": "0x234",
        "chainId": "0xa869"
      },
      "additionalContracts": [],
      "isFixedGasLimit": false
    }
  ],
  "receipts": [
    {
      "status": "0x1",
      "cumulativeGasUsed": "0xcaae",
      "logs": [
        {
          "address": "0x0b9d5d9136855f6fec3c0993fee6e9ce8a297846",
          "topics": [
            "0xddf252ad1be2c89b69c2b068fc378daa952ba7f163c4a11628f55a4df523b3ef",
            "0x0000000000000000000000007e8d7bfd6cc6b05d056f2e46860d95038f2e3234",
            "0x0000000000000000000000002ae0783a0df22e715f1e1d0dd45b9a9320170025"
          ],
          "data": "0x00000000000000000000000000000000000000000000000029a2241af62c0000",
          "blockHash": "0xa1cd9f5a9b841ecdf17e90ecbe86d3fad914bf1bc1af6b9249474c687cde3f3f",
          "blockNumber": "0x2296e12",
          "transactionHash": "0x4d7347a3700993a0a25149f7b76b399122110bf34c2e61f8c5dd2a8fc059adb2",
          "transactionIndex": "0x0",
          "logIndex": "0x0",
          "removed": false
        }
      ],
      "logsBloom": "0x01000000000000000000000000000000000000000000001000000000000000000000000000000000000000000000000000000000000000000000000000000000000000004000000000000008000000000000000000801000000000000000000000000000000000000000000000000000000000000000000000000010000000000000000000000000000000000000000000000000000000000000000000000000000000000000000200000000000000000000000000000000000000000000000000000002000000000020000000000000000000000000000800000000000000000000000000000000000000000000000000000000000100000000000000000000",
      "type": "0x2",
      "transactionHash": "0x4d7347a3700993a0a25149f7b76b399122110bf34c2e61f8c5dd2a8fc059adb2",
      "transactionIndex": "0x0",
      "blockHash": "0xa1cd9f5a9b841ecdf17e90ecbe86d3fad914bf1bc1af6b9249474c687cde3f3f",
      "blockNumber": "0x2296e12",
      "gasUsed": "0xcaae",
      "effectiveGasPrice": "0x6fc23ac00",
      "from": "0x7e8d7bfd6cc6b05d056f2e46860d95038f2e3234",
      "to": "0x0b9d5d9136855f6fec3c0993fee6e9ce8a297846",
      "contractAddress": null
    },
    {
      "status": "0x1",
      "cumulativeGasUsed": "0x10c7b",
      "logs": [
        {
          "address": "0x2ae0783a0df22e715f1e1d0dd45b9a9320170025",
          "topics": [
            "0xddf252ad1be2c89b69c2b068fc378daa952ba7f163c4a11628f55a4df523b3ef",
            "0x0000000000000000000000000000000000000000000000000000000000000000",
            "0x0000000000000000000000002ae0783a0df22e715f1e1d0dd45b9a9320170025",
            "0x0000000000000000000000000000000000000000000000000000000000000001"
          ],
          "data": "0x",
          "blockHash": "0xad0d27f5c73a2c4c00785a344aceb8ac4e74e932abf65c4883a5764dc6901f59",
          "blockNumber": "0x2296e13",
          "transactionHash": "0x5e868b41803b3fe99cb0161baf72b6ef2270406abfaca4e9eebf0f2e221e008b",
          "transactionIndex": "0x0",
          "logIndex": "0x0",
          "removed": false
        }
      ],
      "logsBloom": "0x00000000000000000000000000000000000000000000001000000000000000000000000000000000000000000000000000000000000000000000000000040000000000000001000000100008000000000000000000040000000000000000000000000000020000000000000000000800000000000000000000000010000000000000000000000000000000000000000000000000000000000000000000000000000000000000000000000000000000000000000000000000000000000000000000000002000000002020000000000000000000000000000000000000000060000000000000000000000000000000000000000000000100000000000000000000",
      "type": "0x2",
      "transactionHash": "0x5e868b41803b3fe99cb0161baf72b6ef2270406abfaca4e9eebf0f2e221e008b",
      "transactionIndex": "0x0",
      "blockHash": "0xad0d27f5c73a2c4c00785a344aceb8ac4e74e932abf65c4883a5764dc6901f59",
      "blockNumber": "0x2296e13",
      "gasUsed": "0x10c7b",
      "effectiveGasPrice": "0x6fc23ac00",
      "from": "0x7e8d7bfd6cc6b05d056f2e46860d95038f2e3234",
      "to": "0x2ae0783a0df22e715f1e1d0dd45b9a9320170025",
      "contractAddress": null
    },
    {
      "status": "0x1",
      "cumulativeGasUsed": "0x3d531",
      "logs": [
        {
          "address": "0x0b9d5d9136855f6fec3c0993fee6e9ce8a297846",
          "topics": [
            "0x8c5be1e5ebec7d5bd14f71427d1e84f3dd0314c0f7b2291e5b200ac8c7c3b925",
            "0x0000000000000000000000002ae0783a0df22e715f1e1d0dd45b9a9320170025",
            "0x000000000000000000000000f694e193200268f9a4868e4aa017a0118c9a8177"
          ],
          "data": "0x0000000000000000000000000000000000000000000000001dba6cc96804f798",
          "blockHash": "0xad0d27f5c73a2c4c00785a344aceb8ac4e74e932abf65c4883a5764dc6901f59",
          "blockNumber": "0x2296e13",
          "transactionHash": "0x36c58617d0b4ed907b41e95932fe92c7cc4f4ed2bf6c9521da93561ab384d399",
          "transactionIndex": "0x1",
          "logIndex": "0x1",
          "removed": false
        },
        {
          "address": "0x2ae0783a0df22e715f1e1d0dd45b9a9320170025",
          "topics": [
            "0xddf252ad1be2c89b69c2b068fc378daa952ba7f163c4a11628f55a4df523b3ef",
            "0x0000000000000000000000002ae0783a0df22e715f1e1d0dd45b9a9320170025",
            "0x0000000000000000000000000000000000000000000000000000000000000000",
            "0x0000000000000000000000000000000000000000000000000000000000000001"
          ],
          "data": "0x",
          "blockHash": "0xad0d27f5c73a2c4c00785a344aceb8ac4e74e932abf65c4883a5764dc6901f59",
          "blockNumber": "0x2296e13",
          "transactionHash": "0x36c58617d0b4ed907b41e95932fe92c7cc4f4ed2bf6c9521da93561ab384d399",
          "transactionIndex": "0x1",
          "logIndex": "0x2",
          "removed": false
        },
        {
          "address": "0x0b9d5d9136855f6fec3c0993fee6e9ce8a297846",
          "topics": [
            "0xddf252ad1be2c89b69c2b068fc378daa952ba7f163c4a11628f55a4df523b3ef",
            "0x0000000000000000000000002ae0783a0df22e715f1e1d0dd45b9a9320170025",
            "0x00000000000000000000000075b9a75ee1ffef6be7c4f842a041de7c6153cf4e"
          ],
          "data": "0x0000000000000000000000000000000000000000000000001dba6cc96804f798",
          "blockHash": "0xad0d27f5c73a2c4c00785a344aceb8ac4e74e932abf65c4883a5764dc6901f59",
          "blockNumber": "0x2296e13",
          "transactionHash": "0x36c58617d0b4ed907b41e95932fe92c7cc4f4ed2bf6c9521da93561ab384d399",
          "transactionIndex": "0x1",
          "logIndex": "0x3",
          "removed": false
        },
        {
          "address": "0x75b9a75ee1ffef6be7c4f842a041de7c6153cf4e",
          "topics": [
            "0xd0c3c799bf9e2639de44391e7f524d229b2b55f5b1ea94b2bf7da42f7243dddd"
          ],
          "data": "0x0000000000000000000000000000000000000000000000000000000000000020000000000000000000000000000000000000000000000000ccf0a31a221f3c9b0000000000000000000000002ae0783a0df22e715f1e1d0dd45b9a9320170025000000000000000000000000ba0d9ea5250643ae8fcb62a59f573bbe79b8061d000000000000000000000000000000000000000000000000000000000000006200000000000000000000000000000000000000000000000000000000000e7ef0000000000000000000000000000000000000000000000000000000000000000000000000000000000000000000000000000000000000000000000000000000010000000000000000000000000b9d5d9136855f6fec3c0993fee6e9ce8a2978460000000000000000000000000000000000000000000000001dba6cc96804f79800000000000000000000000000000000000000000000000000000000000001a0000000000000000000000000000000000000000000000000000000000000022000000000000000000000000000000000000000000000000000000000000002409d56109daaca5d0c79585e43a89f188ab380cb3f41d5e63218ea9d3495fe9a4600000000000000000000000000000000000000000000000000000000000000496d696e7428616464726573732c75696e74323536297e8d7bfd6cc6b05d056f2e46860d95038f2e32340000000000000000000000000000000000000000000000000000000000000001000000000000000000000000000000000000000000000000000000000000000000000000000000000000000000000000000000000000000000000000000000000000000000000000000000000000000000000000000000",
          "blockHash": "0xad0d27f5c73a2c4c00785a344aceb8ac4e74e932abf65c4883a5764dc6901f59",
          "blockNumber": "0x2296e13",
          "transactionHash": "0x36c58617d0b4ed907b41e95932fe92c7cc4f4ed2bf6c9521da93561ab384d399",
          "transactionIndex": "0x1",
          "logIndex": "0x4",
          "removed": false
        }
      ],
      "logsBloom": "0x01000000000000000001000000000000000000000000001000000000000000000000000000000000000000000000000000000000000000000000000000240000000000000001000000100008000000000000000000040000000000000000000000000000020000000000000000000800000000000008000000000010000000000008000000000000000000000000000000000000000000000000000000000000020000000000000600000000000000000080000000000800000100100000000000000002000000002020000000000000000000000040000800000000000060000010000000000000000000000000000004000200000100000000000100000000",
      "type": "0x2",
      "transactionHash": "0x36c58617d0b4ed907b41e95932fe92c7cc4f4ed2bf6c9521da93561ab384d399",
      "transactionIndex": "0x1",
      "blockHash": "0xad0d27f5c73a2c4c00785a344aceb8ac4e74e932abf65c4883a5764dc6901f59",
      "blockNumber": "0x2296e13",
      "gasUsed": "0x2c8b6",
      "effectiveGasPrice": "0x6fc23ac00",
      "from": "0x7e8d7bfd6cc6b05d056f2e46860d95038f2e3234",
      "to": "0x2ae0783a0df22e715f1e1d0dd45b9a9320170025",
      "contractAddress": null
    }
  ],
  "libraries": [],
  "pending": [],
  "returns": {},
  "timestamp": 1728799522,
  "chain": 43113,
  "commit": "25d7e58"
}