{
  "transactions": [
    {
      "hash": "0x09e1708b1215eb256613cc7b93fcb573fd6e4b8a262db2bf767fe46e5bd262d3",
      "transactionType": "CALL",
      "contractName": null,
      "contractAddress": "0x0b9d5d9136855f6fec3c0993fee6e9ce8a297846",
      "function": "transfer(address,uint256)",
      "arguments": [
        "0x73D0ED597981FB92DB0ad5e2F3685403460E6c38",
        "3000000000000000000"
      ],
      "transaction": {
        "from": "0x7e8d7bfd6cc6b05d056f2e46860d95038f2e3234",
        "to": "0x0b9d5d9136855f6fec3c0993fee6e9ce8a297846",
        "gas": "0x1287c",
        "value": "0x0",
        "input": "0xa9059cbb00000000000000000000000073d0ed597981fb92db0ad5e2f3685403460e6c3800000000000000000000000000000000000000000000000029a2241af62c0000",
        "nonce": "0x236",
        "chainId": "0xa869"
      },
      "additionalContracts": [],
      "isFixedGasLimit": false
    },
    {
      "hash": "0x8750bddbfcd43f428b9c075aa5c2675891265fd721f51c9a565f9e70dae61301",
      "transactionType": "CALL",
      "contractName": null,
      "contractAddress": "0x73d0ed597981fb92db0ad5e2f3685403460e6c38",
      "function": "mint(address,uint256)",
      "arguments": [
        "0x73D0ED597981FB92DB0ad5e2F3685403460E6c38",
        "1"
      ],
      "transaction": {
        "from": "0x7e8d7bfd6cc6b05d056f2e46860d95038f2e3234",
        "to": "0x73d0ed597981fb92db0ad5e2f3685403460e6c38",
        "gas": "0x172ee",
        "value": "0x0",
        "input": "0x40c10f1900000000000000000000000073d0ed597981fb92db0ad5e2f3685403460e6c380000000000000000000000000000000000000000000000000000000000000001",
        "nonce": "0x237",
        "chainId": "0xa869"
      },
      "additionalContracts": [],
      "isFixedGasLimit": false
    },
    {
      "hash": "0xe894e47bc88952c237bada4b9bc7748648a271cd10793805879d9f3004e84f7b",
      "transactionType": "CALL",
      "contractName": null,
      "contractAddress": "0x73d0ed597981fb92db0ad5e2f3685403460e6c38",
      "function": "transferCrossChain(address,uint256,uint64)",
      "arguments": [
        "0x1418042dCd2ccf33783067F6f888da71f9B1dcE8",
        "1",
        "16015286601757825753"
      ],
      "transaction": {
        "from": "0x7e8d7bfd6cc6b05d056f2e46860d95038f2e3234",
        "to": "0x73d0ed597981fb92db0ad5e2f3685403460e6c38",
        "gas": "0x38ac3",
        "value": "0x0",
        "input": "0xb917bbcd0000000000000000000000001418042dcd2ccf33783067f6f888da71f9b1dce80000000000000000000000000000000000000000000000000000000000000001000000000000000000000000000000000000000000000000de41ba4fc9d91ad9",
        "nonce": "0x238",
        "chainId": "0xa869"
      },
      "additionalContracts": [],
      "isFixedGasLimit": false
    }
  ],
  "receipts": [
    {
      "status": "0x1",
      "cumulativeGasUsed": "0xcaba",
      "logs": [
        {
          "address": "0x0b9d5d9136855f6fec3c0993fee6e9ce8a297846",
          "topics": [
            "0xddf252ad1be2c89b69c2b068fc378daa952ba7f163c4a11628f55a4df523b3ef",
            "0x0000000000000000000000007e8d7bfd6cc6b05d056f2e46860d95038f2e3234",
            "0x00000000000000000000000073d0ed597981fb92db0ad5e2f3685403460e6c38"
          ],
          "data": "0x00000000000000000000000000000000000000000000000029a2241af62c0000",
          "blockHash": "0x56212027b99af504241552ab58fc7a3513f141be21f03dbbf7e1fe77d5956f34",
          "blockNumber": "0x2296e44",
          "transactionHash": "0x09e1708b1215eb256613cc7b93fcb573fd6e4b8a262db2bf767fe46e5bd262d3",
          "transactionIndex": "0x0",
          "logIndex": "0x0",
          "removed": false
        }
      ],
      "logsBloom": "0x01000000000000000000000000000000080000000000000000000000000000000000000000000000000000000000000000000000000000000000000000000000000000004000000000000008000000000000000000801000000000000000000000000000000000000000000000000000000000000000000000000010000000000000000000000000000000000000000000000000000000000000000000000000000000000000000200000000000000000000000000000000000000000000000000000002000000000000000000000000000000000000000800000000000000000000000000000000000000000000080000000000000800000000000000000000",
      "type": "0x2",
      "transactionHash": "0x09e1708b1215eb256613cc7b93fcb573fd6e4b8a262db2bf767fe46e5bd262d3",
      "transactionIndex": "0x0",
      "blockHash": "0x56212027b99af504241552ab58fc7a3513f141be21f03dbbf7e1fe77d5956f34",
      "blockNumber": "0x2296e44",
      "gasUsed": "0xcaba",
      "effectiveGasPrice": "0x6fc23ac00",
      "from": "0x7e8d7bfd6cc6b05d056f2e46860d95038f2e3234",
      "to": "0x0b9d5d9136855f6fec3c0993fee6e9ce8a297846",
      "contractAddress": null
    },
    {
      "status": "0x1",
      "cumulativeGasUsed": "0x1d747",
      "logs": [
        {
          "address": "0x73d0ed597981fb92db0ad5e2f3685403460e6c38",
          "topics": [
            "0xddf252ad1be2c89b69c2b068fc378daa952ba7f163c4a11628f55a4df523b3ef",
            "0x0000000000000000000000000000000000000000000000000000000000000000",
            "0x00000000000000000000000073d0ed597981fb92db0ad5e2f3685403460e6c38",
            "0x0000000000000000000000000000000000000000000000000000000000000001"
          ],
          "data": "0x",
          "blockHash": "0x56212027b99af504241552ab58fc7a3513f141be21f03dbbf7e1fe77d5956f34",
          "blockNumber": "0x2296e44",
          "transactionHash": "0x8750bddbfcd43f428b9c075aa5c2675891265fd721f51c9a565f9e70dae61301",
          "transactionIndex": "0x1",
          "logIndex": "0x1",
          "removed": false
        }
      ],
      "logsBloom": "0x00000000000000000000000000000000080000000000000000000000000000000000000000000000000000000000000000000000000000000000000000040000000000000000000000000008000000000000000000040000000000000000000000000000020000000000000000000800000000000000000000000010000000000000000000000000000000000000000000000000000000001000000000000000000000000000000000000000000000000000000000000000000000000000000000000002000000000000000000000000000000000000000000000000000060000000400000000000000000000000082000000000000800000000000000000000",
      "type": "0x2",
      "transactionHash": "0x8750bddbfcd43f428b9c075aa5c2675891265fd721f51c9a565f9e70dae61301",
      "transactionIndex": "0x1",
      "blockHash": "0x56212027b99af504241552ab58fc7a3513f141be21f03dbbf7e1fe77d5956f34",
      "blockNumber": "0x2296e44",
      "gasUsed": "0x10c8d",
      "effectiveGasPrice": "0x6fc23ac00",
      "from": "0x7e8d7bfd6cc6b05d056f2e46860d95038f2e3234",
      "to": "0x73d0ed597981fb92db0ad5e2f3685403460e6c38",
      "contractAddress": null
    },
    {
      "status": "0x1",
      "cumulativeGasUsed": "0x4a003",
      "logs": [
        {
          "address": "0x0b9d5d9136855f6fec3c0993fee6e9ce8a297846",
          "topics": [
            "0x8c5be1e5ebec7d5bd14f71427d1e84f3dd0314c0f7b2291e5b200ac8c7c3b925",
            "0x00000000000000000000000073d0ed597981fb92db0ad5e2f3685403460e6c38",
            "0x000000000000000000000000f694e193200268f9a4868e4aa017a0118c9a8177"
          ],
          "data": "0x0000000000000000000000000000000000000000000000001dba6cc96804f798",
          "blockHash": "0x56212027b99af504241552ab58fc7a3513f141be21f03dbbf7e1fe77d5956f34",
          "blockNumber": "0x2296e44",
          "transactionHash": "0xe894e47bc88952c237bada4b9bc7748648a271cd10793805879d9f3004e84f7b",
          "transactionIndex": "0x2",
          "logIndex": "0x2",
          "removed": false
        },
        {
          "address": "0x73d0ed597981fb92db0ad5e2f3685403460e6c38",
          "topics": [
            "0xddf252ad1be2c89b69c2b068fc378daa952ba7f163c4a11628f55a4df523b3ef",
            "0x00000000000000000000000073d0ed597981fb92db0ad5e2f3685403460e6c38",
            "0x0000000000000000000000000000000000000000000000000000000000000000",
            "0x0000000000000000000000000000000000000000000000000000000000000001"
          ],
          "data": "0x",
          "blockHash": "0x56212027b99af504241552ab58fc7a3513f141be21f03dbbf7e1fe77d5956f34",
          "blockNumber": "0x2296e44",
          "transactionHash": "0xe894e47bc88952c237bada4b9bc7748648a271cd10793805879d9f3004e84f7b",
          "transactionIndex": "0x2",
          "logIndex": "0x3",
          "removed": false
        },
        {
          "address": "0x0b9d5d9136855f6fec3c0993fee6e9ce8a297846",
          "topics": [
            "0xddf252ad1be2c89b69c2b068fc378daa952ba7f163c4a11628f55a4df523b3ef",
            "0x00000000000000000000000073d0ed597981fb92db0ad5e2f3685403460e6c38",
            "0x00000000000000000000000075b9a75ee1ffef6be7c4f842a041de7c6153cf4e"
          ],
          "data": "0x0000000000000000000000000000000000000000000000001dba6cc96804f798",
          "blockHash": "0x56212027b99af504241552ab58fc7a3513f141be21f03dbbf7e1fe77d5956f34",
          "blockNumber": "0x2296e44",
          "transactionHash": "0xe894e47bc88952c237bada4b9bc7748648a271cd10793805879d9f3004e84f7b",
          "transactionIndex": "0x2",
          "logIndex": "0x4",
          "removed": false
        },
        {
          "address": "0x75b9a75ee1ffef6be7c4f842a041de7c6153cf4e",
          "topics": [
            "0xd0c3c799bf9e2639de44391e7f524d229b2b55f5b1ea94b2bf7da42f7243dddd"
          ],
          "data": "0x0000000000000000000000000000000000000000000000000000000000000020000000000000000000000000000000000000000000000000ccf0a31a221f3c9b00000000000000000000000073d0ed597981fb92db0ad5e2f3685403460e6c380000000000000000000000001418042dcd2ccf33783067f6f888da71f9b1dce8000000000000000000000000000000000000000000000000000000000000006300000000000000000000000000000000000000000000000000000000000e7ef0000000000000000000000000000000000000000000000000000000000000000000000000000000000000000000000000000000000000000000000000000000010000000000000000000000000b9d5d9136855f6fec3c0993fee6e9ce8a2978460000000000000000000000000000000000000000000000001dba6cc96804f79800000000000000000000000000000000000000000000000000000000000001a0000000000000000000000000000000000000000000000000000000000000022000000000000000000000000000000000000000000000000000000000000002409e2354a5cfdf3b5788e6b1868e5e2ad86b1a96f62689267439587e03a33af82100000000000000000000000000000000000000000000000000000000000000496d696e7428616464726573732c75696e74323536297e8d7bfd6cc6b05d056f2e46860d95038f2e32340000000000000000000000000000000000000000000000000000000000000001000000000000000000000000000000000000000000000000000000000000000000000000000000000000000000000000000000000000000000000000000000000000000000000000000000000000000000000000000000",
          "blockHash": "0x56212027b99af504241552ab58fc7a3513f141be21f03dbbf7e1fe77d5956f34",
          "blockNumber": "0x2296e44",
          "transactionHash": "0xe894e47bc88952c237bada4b9bc7748648a271cd10793805879d9f3004e84f7b",
          "transactionIndex": "0x2",
          "logIndex": "0x5",
          "removed": false
        }
      ],
      "logsBloom": "0x01000000000000000001000000000000080000000000000000000000000000000000000000000000000000000000000000000000000000000000000000240000000000000000000000000008000000000000000000040000000000000000000000000000020000000000000000000800000000000008000000000010000000000008000000000000000000000000000000000000000000001000000000000000020000000000000600000000000000000080000000000800000100100000000000000002000000000000000000000000000000000040000800000000000060000010400000000000000000000000082004000200000800000000000100000000",
      "type": "0x2",
      "transactionHash": "0xe894e47bc88952c237bada4b9bc7748648a271cd10793805879d9f3004e84f7b",
      "transactionIndex": "0x2",
      "blockHash": "0x56212027b99af504241552ab58fc7a3513f141be21f03dbbf7e1fe77d5956f34",
      "blockNumber": "0x2296e44",
      "gasUsed": "0x2c8bc",
      "effectiveGasPrice": "0x6fc23ac00",
      "from": "0x7e8d7bfd6cc6b05d056f2e46860d95038f2e3234",
      "to": "0x73d0ed597981fb92db0ad5e2f3685403460e6c38",
      "contractAddress": null
    }
  ],
  "libraries": [],
  "pending": [],
  "returns": {},
  "timestamp": 1728799958,
  "chain": 43113,
  "commit": "25d7e58"
}