{
  "transactions": [
    {
      "hash": "0x62c0fdabd51c4699cb3c2e5047bc1e01e827591795f9889bedae7553011630e3",
      "transactionType": "CALL",
      "contractName": null,
      "contractAddress": "0x0b9d5d9136855f6fec3c0993fee6e9ce8a297846",
      "function": "transfer(address,uint256)",
      "arguments": [
        "0xd48e2E3514E94BE1Ed080D77bD253707e1dBd3A0",
        "3000000000000000000"
      ],
      "transaction": {
        "from": "0x7e8d7bfd6cc6b05d056f2e46860d95038f2e3234",
        "to": "0x0b9d5d9136855f6fec3c0993fee6e9ce8a297846",
        "gas": "0x1287c",
        "value": "0x0",
        "input": "0xa9059cbb000000000000000000000000d48e2e3514e94be1ed080d77bd253707e1dbd3a000000000000000000000000000000000000000000000000029a2241af62c0000",
        "nonce": "0x23e",
        "chainId": "0xa869"
      },
      "additionalContracts": [],
      "isFixedGasLimit": false
    },
    {
      "hash": "0x37fb7d77fac6e3a63ff3afe4a0568b34fe6a649725eaa9073935e368b4bbbf94",
      "transactionType": "CALL",
      "contractName": null,
      "contractAddress": "0xd48e2e3514e94be1ed080d77bd253707e1dbd3a0",
      "function": "mint(address,uint256)",
      "arguments": [
        "0xd48e2E3514E94BE1Ed080D77bD253707e1dBd3A0",
        "1"
      ],
      "transaction": {
        "from": "0x7e8d7bfd6cc6b05d056f2e46860d95038f2e3234",
        "to": "0xd48e2e3514e94be1ed080d77bd253707e1dbd3a0",
        "gas": "0x172e6",
        "value": "0x0",
        "input": "0x40c10f19000000000000000000000000d48e2e3514e94be1ed080d77bd253707e1dbd3a00000000000000000000000000000000000000000000000000000000000000001",
        "nonce": "0x23f",
        "chainId": "0xa869"
      },
      "additionalContracts": [],
      "isFixedGasLimit": false
    },
    {
      "hash": "0x2eeca271200754bcb6defb43e88561e9653855d0ac15ec63764822714a9d6a0a",
      "transactionType": "CALL",
      "contractName": null,
      "contractAddress": "0xd48e2e3514e94be1ed080d77bd253707e1dbd3a0",
      "function": "transferCrossChain(address,uint256,uint64)",
      "arguments": [
        "0xD260DC944F8dD4766804807C42185643FD5FEeA5",
        "1",
        "16015286601757825753"
      ],
      "transaction": {
        "from": "0x7e8d7bfd6cc6b05d056f2e46860d95038f2e3234",
        "to": "0xd48e2e3514e94be1ed080d77bd253707e1dbd3a0",
        "gas": "0x38ae7",
        "value": "0x0",
        "input": "0xb917bbcd000000000000000000000000d260dc944f8dd4766804807c42185643fd5feea50000000000000000000000000000000000000000000000000000000000000001000000000000000000000000000000000000000000000000de41ba4fc9d91ad9",
        "nonce": "0x240",
        "chainId": "0xa869"
      },
      "additionalContracts": [],
      "isFixedGasLimit": false
    }
  ],
  "receipts": [
    {
      "status": "0x1",
      "cumulativeGasUsed": "0xcaba",
      "logs": [
        {
          "address": "0x0b9d5d9136855f6fec3c0993fee6e9ce8a297846",
          "topics": [
            "0xddf252ad1be2c89b69c2b068fc378daa952ba7f163c4a11628f55a4df523b3ef",
            "0x0000000000000000000000007e8d7bfd6cc6b05d056f2e46860d95038f2e3234",
            "0x000000000000000000000000d48e2e3514e94be1ed080d77bd253707e1dbd3a0"
          ],
          "data": "0x00000000000000000000000000000000000000000000000029a2241af62c0000",
          "blockHash": "0x007e90a9c9301fcd4c5c1ecad36474ea20239def9e41549f2198b41202cd0099",
          "blockNumber": "0x2296ecc",
          "transactionHash": "0x62c0fdabd51c4699cb3c2e5047bc1e01e827591795f9889bedae7553011630e3",
          "transactionIndex": "0x0",
          "logIndex": "0x0",
          "removed": false
        }
      ],
      "logsBloom": "0x09000000000000000000000000000000000000000000000000000000000000000000000000000000000000000000000000000000000000000000000000000000000000004000000000000008000000000000000000801000000000000000000000000000000000000000000000000000000000000000000000000010000000000000000000000000000000000000000000000000000000000000000000000000000000000000000200000000000000000000000000000000000000000080000000000002000000000000000000000000000020000000000800000000000000000000000000000000000000000000000000000000000000000000000000000000",
      "type": "0x2",
      "transactionHash": "0x62c0fdabd51c4699cb3c2e5047bc1e01e827591795f9889bedae7553011630e3",
      "transactionIndex": "0x0",
      "blockHash": "0x007e90a9c9301fcd4c5c1ecad36474ea20239def9e41549f2198b41202cd0099",
      "blockNumber": "0x2296ecc",
      "gasUsed": "0xcaba",
      "effectiveGasPrice": "0x6fc23ac00",
      "from": "0x7e8d7bfd6cc6b05d056f2e46860d95038f2e3234",
      "to": "0x0b9d5d9136855f6fec3c0993fee6e9ce8a297846",
      "contractAddress": null
    },
    {
      "status": "0x1",
      "cumulativeGasUsed": "0x1d741",
      "logs": [
        {
          "address": "0xd48e2e3514e94be1ed080d77bd253707e1dbd3a0",
          "topics": [
            "0xddf252ad1be2c89b69c2b068fc378daa952ba7f163c4a11628f55a4df523b3ef",
            "0x0000000000000000000000000000000000000000000000000000000000000000",
            "0x000000000000000000000000d48e2e3514e94be1ed080d77bd253707e1dbd3a0",
            "0x0000000000000000000000000000000000000000000000000000000000000001"
          ],
          "data": "0x",
          "blockHash": "0x007e90a9c9301fcd4c5c1ecad36474ea20239def9e41549f2198b41202cd0099",
          "blockNumber": "0x2296ecc",
          "transactionHash": "0x37fb7d77fac6e3a63ff3afe4a0568b34fe6a649725eaa9073935e368b4bbbf94",
          "transactionIndex": "0x1",
          "logIndex": "0x1",
          "removed": false
        }
      ],
      "logsBloom": "0x08000000000000000000000000000000000000000000000000000000000000000000000000000000000000000000000000000000000000000000000000040000000000000000000000000008000000000000000000040000000000000000000000000000020400000000000000000800000000000000000000000010000000000000000000000000000000000000000000000000000000000000000000000000040000000000000000000000000000000000000000000000000000000080000000000002000000000000000000000000000020000000000000000100000060000000000000000000000000000000000000000000000000000000000000000000",
      "type": "0x2",
      "transactionHash": "0x37fb7d77fac6e3a63ff3afe4a0568b34fe6a649725eaa9073935e368b4bbbf94",
      "transactionIndex": "0x1",
      "blockHash": "0x007e90a9c9301fcd4c5c1ecad36474ea20239def9e41549f2198b41202cd0099",
      "blockNumber": "0x2296ecc",
      "gasUsed": "0x10c87",
      "effectiveGasPrice": "0x6fc23ac00",
      "from": "0x7e8d7bfd6cc6b05d056f2e46860d95038f2e3234",
      "to": "0xd48e2e3514e94be1ed080d77bd253707e1dbd3a0",
      "contractAddress": null
    },
    {
      "status": "0x1",
      "cumulativeGasUsed": "0x4a016",
      "logs": [
        {
          "address": "0x0b9d5d9136855f6fec3c0993fee6e9ce8a297846",
          "topics": [
            "0x8c5be1e5ebec7d5bd14f71427d1e84f3dd0314c0f7b2291e5b200ac8c7c3b925",
            "0x000000000000000000000000d48e2e3514e94be1ed080d77bd253707e1dbd3a0",
            "0x000000000000000000000000f694e193200268f9a4868e4aa017a0118c9a8177"
          ],
          "data": "0x0000000000000000000000000000000000000000000000001ebb7de19e705ad9",
          "blockHash": "0x007e90a9c9301fcd4c5c1ecad36474ea20239def9e41549f2198b41202cd0099",
          "blockNumber": "0x2296ecc",
          "transactionHash": "0x2eeca271200754bcb6defb43e88561e9653855d0ac15ec63764822714a9d6a0a",
          "transactionIndex": "0x2",
          "logIndex": "0x2",
          "removed": false
        },
        {
          "address": "0xd48e2e3514e94be1ed080d77bd253707e1dbd3a0",
          "topics": [
            "0xddf252ad1be2c89b69c2b068fc378daa952ba7f163c4a11628f55a4df523b3ef",
            "0x000000000000000000000000d48e2e3514e94be1ed080d77bd253707e1dbd3a0",
            "0x0000000000000000000000000000000000000000000000000000000000000000",
            "0x0000000000000000000000000000000000000000000000000000000000000001"
          ],
          "data": "0x",
          "blockHash": "0x007e90a9c9301fcd4c5c1ecad36474ea20239def9e41549f2198b41202cd0099",
          "blockNumber": "0x2296ecc",
          "transactionHash": "0x2eeca271200754bcb6defb43e88561e9653855d0ac15ec63764822714a9d6a0a",
          "transactionIndex": "0x2",
          "logIndex": "0x3",
          "removed": false
        },
        {
          "address": "0x0b9d5d9136855f6fec3c0993fee6e9ce8a297846",
          "topics": [
            "0xddf252ad1be2c89b69c2b068fc378daa952ba7f163c4a11628f55a4df523b3ef",
            "0x000000000000000000000000d48e2e3514e94be1ed080d77bd253707e1dbd3a0",
            "0x00000000000000000000000075b9a75ee1ffef6be7c4f842a041de7c6153cf4e"
          ],
          "data": "0x0000000000000000000000000000000000000000000000001ebb7de19e705ad9",
          "blockHash": "0x007e90a9c9301fcd4c5c1ecad36474ea20239def9e41549f2198b41202cd0099",
          "blockNumber": "0x2296ecc",
          "transactionHash": "0x2eeca271200754bcb6defb43e88561e9653855d0ac15ec63764822714a9d6a0a",
          "transactionIndex": "0x2",
          "logIndex": "0x4",
          "removed": false
        },
        {
          "address": "0x75b9a75ee1ffef6be7c4f842a041de7c6153cf4e",
          "topics": [
            "0xd0c3c799bf9e2639de44391e7f524d229b2b55f5b1ea94b2bf7da42f7243dddd"
          ],
          "data": "0x0000000000000000000000000000000000000000000000000000000000000020000000000000000000000000000000000000000000000000ccf0a31a221f3c9b000000000000000000000000d48e2e3514e94be1ed080d77bd253707e1dbd3a0000000000000000000000000d260dc944f8dd4766804807c42185643fd5feea5000000000000000000000000000000000000000000000000000000000000006500000000000000000000000000000000000000000000000000000000000e7ef0000000000000000000000000000000000000000000000000000000000000000000000000000000000000000000000000000000000000000000000000000000010000000000000000000000000b9d5d9136855f6fec3c0993fee6e9ce8a2978460000000000000000000000000000000000000000000000001ebb7de19e705ad900000000000000000000000000000000000000000000000000000000000001a000000000000000000000000000000000000000000000000000000000000002200000000000000000000000000000000000000000000000000000000000000240fad864998c64fcd7ad2d3d24f6d5e5a2bf2e6f5989e276ff3f26300c8d7ef3f3000000000000000000000000000000000000000000000000000000000000004440c10f190000000000000000000000007e8d7bfd6cc6b05d056f2e46860d95038f2e323400000000000000000000000000000000000000000000000000000000000000010000000000000000000000000000000000000000000000000000000000000000000000000000000000000000000000000000000000000000000000000000000000000000000000000000000000000000000000000000000000000000",
          "blockHash": "0x007e90a9c9301fcd4c5c1ecad36474ea20239def9e41549f2198b41202cd0099",
          "blockNumber": "0x2296ecc",
          "transactionHash": "0x2eeca271200754bcb6defb43e88561e9653855d0ac15ec63764822714a9d6a0a",
          "transactionIndex": "0x2",
          "logIndex": "0x5",
          "removed": false
        }
      ],
      "logsBloom": "0x09000000000000000001000000000000000000000000000000000000000000000000000000000000000000000000000000000000000000000000000000240000000000000000000000000008000000000000000000040000000000000000000000000000020400000000000000000800000000000008000000000010000000000008000000000000000000000000000000000000000000000000000000000000060000000000000600000000000000000080000000000800000100100080000000000002000000000000000000000000000020000040000800000100000060000010000000000000000000000000000004000200000000000000000100000000",
      "type": "0x2",
      "transactionHash": "0x2eeca271200754bcb6defb43e88561e9653855d0ac15ec63764822714a9d6a0a",
      "transactionIndex": "0x2",
      "blockHash": "0x007e90a9c9301fcd4c5c1ecad36474ea20239def9e41549f2198b41202cd0099",
      "blockNumber": "0x2296ecc",
      "gasUsed": "0x2c8d5",
      "effectiveGasPrice": "0x6fc23ac00",
      "from": "0x7e8d7bfd6cc6b05d056f2e46860d95038f2e3234",
      "to": "0xd48e2e3514e94be1ed080d77bd253707e1dbd3a0",
      "contractAddress": null
    }
  ],
  "libraries": [],
  "pending": [],
  "returns": {},
  "timestamp": 1728801476,
  "chain": 43113,
  "commit": "25d7e58"
}