{
  "transactions": [
    {
      "hash": "0xa23a2e31ba50bda990c1492c472f8360c07a31d1f809407f7c29866cc80a2743",
      "transactionType": "CALL",
      "contractName": null,
      "contractAddress": "0x0b9d5D9136855f6FEc3c0993feE6E9CE8a297846",
      "function": "transfer(address,uint256)",
      "arguments": [
        "0xe194E5B6A71f4dd5f6dEA01DF3201710e6CBceAE",
        "5000000000000000000"
      ],
      "transaction": {
        "from": "0x7E8d7BFd6cc6B05d056f2E46860D95038f2E3234",
        "to": "0x0b9d5D9136855f6FEc3c0993feE6E9CE8a297846",
        "gas": "0x1287c",
        "value": "0x0",
        "input": "0xa9059cbb000000000000000000000000e194e5b6a71f4dd5f6dea01df3201710e6cbceae0000000000000000000000000000000000000000000000004563918244f40000",
        "nonce": "0x24a",
        "chainId": "0xa869"
      },
      "additionalContracts": [],
      "isFixedGasLimit": false
    },
    {
      "hash": "0xb7db8c6858e5d7fe91f25e020da5927e5fab33b02e60e991122f11673b015fb0",
      "transactionType": "CALL",
      "contractName": null,
      "contractAddress": "0xe194E5B6A71f4dd5f6dEA01DF3201710e6CBceAE",
      "function": "mint(address,uint256)",
      "arguments": [
        "0xe194E5B6A71f4dd5f6dEA01DF3201710e6CBceAE",
        "1"
      ],
      "transaction": {
        "from": "0x7E8d7BFd6cc6B05d056f2E46860D95038f2E3234",
        "to": "0xe194E5B6A71f4dd5f6dEA01DF3201710e6CBceAE",
        "gas": "0x19199",
        "value": "0x0",
        "input": "0x40c10f19000000000000000000000000e194e5b6a71f4dd5f6dea01df3201710e6cbceae0000000000000000000000000000000000000000000000000000000000000001",
        "nonce": "0x24b",
        "chainId": "0xa869"
      },
      "additionalContracts": [],
      "isFixedGasLimit": false
    },
    {
      "hash": "0x631757fa76a4bac637f533c19b53e57a76ab652d39334d5518b1613f5ece8b51",
      "transactionType": "CALL",
      "contractName": null,
      "contractAddress": "0xe194E5B6A71f4dd5f6dEA01DF3201710e6CBceAE",
      "function": "transferCrossChain(address,uint256,uint64)",
      "arguments": [
        "0xAF67BDC24A0311c8cB450E3ea00eAb7073321E99",
        "1",
        "16015286601757825753"
      ],
      "transaction": {
        "from": "0x7E8d7BFd6cc6B05d056f2E46860D95038f2E3234",
        "to": "0xe194E5B6A71f4dd5f6dEA01DF3201710e6CBceAE",
        "gas": "0x3c048",
        "value": "0x0",
        "input": "0xb917bbcd000000000000000000000000af67bdc24a0311c8cb450e3ea00eab7073321e990000000000000000000000000000000000000000000000000000000000000001000000000000000000000000000000000000000000000000de41ba4fc9d91ad9",
        "nonce": "0x24c",
        "chainId": "0xa869"
      },
      "additionalContracts": [],
      "isFixedGasLimit": false
    }
  ],
  "receipts": [
    {
      "status": "0x1",
      "cumulativeGasUsed": "0xcaba",
      "logs": [
        {
          "address": "0x0b9d5D9136855f6FEc3c0993feE6E9CE8a297846",
          "topics": [
            "0xddf252ad1be2c89b69c2b068fc378daa952ba7f163c4a11628f55a4df523b3ef",
            "0x0000000000000000000000007e8d7bfd6cc6b05d056f2e46860d95038f2e3234",
            "0x000000000000000000000000e194e5b6a71f4dd5f6dea01df3201710e6cbceae"
          ],
          "data": "0x0000000000000000000000000000000000000000000000004563918244f40000",
          "blockHash": "0x10ee078ed5e4ebddffac0e2f741fe0fb0d8d4ca65490e6f5294be5f448cb6c6a",
          "blockNumber": "0x2298393",
          "transactionHash": "0xa23a2e31ba50bda990c1492c472f8360c07a31d1f809407f7c29866cc80a2743",
          "transactionIndex": "0x0",
          "logIndex": "0x0",
          "removed": false
        }
      ],
      "logsBloom": "0x01000000000000000000000000000000000000000000000000000000000000000000000000000000000000000000000000000000000000000000000000000000000000004000000000000008000100000000000000801000000000000000000000000000000000000000000000000000000000000000000000000010000000000000000000000000000000000000000000000000000000000000000000000000000000000000000200000000000000000000000000010000000000000000000000000002000000000000000000000000000000000000000800000000000000000000000000000000000000000000000000040000000000000000000000000000",
      "type": "0x2",
      "transactionHash": "0xa23a2e31ba50bda990c1492c472f8360c07a31d1f809407f7c29866cc80a2743",
      "transactionIndex": "0x0",
      "blockHash": "0x10ee078ed5e4ebddffac0e2f741fe0fb0d8d4ca65490e6f5294be5f448cb6c6a",
      "blockNumber": "0x2298393",
      "gasUsed": "0xcaba",
      "effectiveGasPrice": "0x6fc23ac00",
      "from": "0x7E8d7BFd6cc6B05d056f2E46860D95038f2E3234",
      "to": "0x0b9d5D9136855f6FEc3c0993feE6E9CE8a297846",
      "contractAddress": null
    },
    {
      "status": "0x1",
      "cumulativeGasUsed": "0x11299",
      "logs": [
        {
          "address": "0xe194E5B6A71f4dd5f6dEA01DF3201710e6CBceAE",
          "topics": [
            "0xddf252ad1be2c89b69c2b068fc378daa952ba7f163c4a11628f55a4df523b3ef",
            "0x0000000000000000000000000000000000000000000000000000000000000000",
            "0x000000000000000000000000e194e5b6a71f4dd5f6dea01df3201710e6cbceae",
            "0x0000000000000000000000000000000000000000000000000000000000000001"
          ],
          "data": "0x",
          "blockHash": "0x90b243b4eac08f930372d987bf3299f652cc1337326afe73cddbbe555dce81c2",
          "blockNumber": "0x2298394",
          "transactionHash": "0xb7db8c6858e5d7fe91f25e020da5927e5fab33b02e60e991122f11673b015fb0",
          "transactionIndex": "0x0",
          "logIndex": "0x0",
          "removed": false
        },
        {
          "address": "0xe194E5B6A71f4dd5f6dEA01DF3201710e6CBceAE",
          "topics": [
            "0x91def4a5a80c8591b0cf709563e6764efa7ec039765de2c6330b93c057e390a6",
            "0x000000000000000000000000e194e5b6a71f4dd5f6dea01df3201710e6cbceae",
            "0x0000000000000000000000000000000000000000000000000000000000000001"
          ],
          "data": "0x",
          "blockHash": "0x90b243b4eac08f930372d987bf3299f652cc1337326afe73cddbbe555dce81c2",
          "blockNumber": "0x2298394",
          "transactionHash": "0xb7db8c6858e5d7fe91f25e020da5927e5fab33b02e60e991122f11673b015fb0",
          "transactionIndex": "0x0",
          "logIndex": "0x1",
          "removed": false
        }
      ],
      "logsBloom": "0x00000000000000000000000000000000000000000000000000000000000000000000000000000000000000000002000000000000000000000000000000040000000000000000000000000008000100000000000000040000800000000000000000000000020000000000000000000800001000000000000000000010000000000000000000000000000000000000000000000000000000000000000000000000000000000000000000000000000002000000000000010004000800000000000000000002000000000000000000000000000000000000000000000000000060000000000000000000000000000000000000040000000000000000000000000000",
      "type": "0x2",
      "transactionHash": "0xb7db8c6858e5d7fe91f25e020da5927e5fab33b02e60e991122f11673b015fb0",
      "transactionIndex": "0x0",
      "blockHash": "0x90b243b4eac08f930372d987bf3299f652cc1337326afe73cddbbe555dce81c2",
      "blockNumber": "0x2298394",
      "gasUsed": "0x11299",
      "effectiveGasPrice": "0x6fc23ac00",
      "from": "0x7E8d7BFd6cc6B05d056f2E46860D95038f2E3234",
      "to": "0xe194E5B6A71f4dd5f6dEA01DF3201710e6CBceAE",
      "contractAddress": null
    },
    {
      "status": "0x1",
      "cumulativeGasUsed": "0x3db74",
      "logs": [
        {
          "address": "0x0b9d5D9136855f6FEc3c0993feE6E9CE8a297846",
          "topics": [
            "0x8c5be1e5ebec7d5bd14f71427d1e84f3dd0314c0f7b2291e5b200ac8c7c3b925",
            "0x000000000000000000000000e194e5b6a71f4dd5f6dea01df3201710e6cbceae",
            "0x000000000000000000000000f694e193200268f9a4868e4aa017a0118c9a8177"
          ],
          "data": "0x0000000000000000000000000000000000000000000000003bc67fea39419fbf",
          "blockHash": "0x90b243b4eac08f930372d987bf3299f652cc1337326afe73cddbbe555dce81c2",
          "blockNumber": "0x2298394",
          "transactionHash": "0x631757fa76a4bac637f533c19b53e57a76ab652d39334d5518b1613f5ece8b51",
          "transactionIndex": "0x1",
          "logIndex": "0x2",
          "removed": false
        },
        {
          "address": "0xe194E5B6A71f4dd5f6dEA01DF3201710e6CBceAE",
          "topics": [
            "0xddf252ad1be2c89b69c2b068fc378daa952ba7f163c4a11628f55a4df523b3ef",
            "0x000000000000000000000000e194e5b6a71f4dd5f6dea01df3201710e6cbceae",
            "0x0000000000000000000000000000000000000000000000000000000000000000",
            "0x0000000000000000000000000000000000000000000000000000000000000001"
          ],
          "data": "0x",
          "blockHash": "0x90b243b4eac08f930372d987bf3299f652cc1337326afe73cddbbe555dce81c2",
          "blockNumber": "0x2298394",
          "transactionHash": "0x631757fa76a4bac637f533c19b53e57a76ab652d39334d5518b1613f5ece8b51",
          "transactionIndex": "0x1",
          "logIndex": "0x3",
          "removed": false
        },
        {
          "address": "0x0b9d5D9136855f6FEc3c0993feE6E9CE8a297846",
          "topics": [
            "0xddf252ad1be2c89b69c2b068fc378daa952ba7f163c4a11628f55a4df523b3ef",
            "0x000000000000000000000000e194e5b6a71f4dd5f6dea01df3201710e6cbceae",
            "0x00000000000000000000000075b9a75ee1ffef6be7c4f842a041de7c6153cf4e"
          ],
          "data": "0x0000000000000000000000000000000000000000000000003bc67fea39419fbf",
          "blockHash": "0x90b243b4eac08f930372d987bf3299f652cc1337326afe73cddbbe555dce81c2",
          "blockNumber": "0x2298394",
          "transactionHash": "0x631757fa76a4bac637f533c19b53e57a76ab652d39334d5518b1613f5ece8b51",
          "transactionIndex": "0x1",
          "logIndex": "0x4",
          "removed": false
        },
        {
          "address": "0x75b9a75Ee1fFef6BE7c4F842a041De7c6153CF4E",
          "topics": [
            "0xd0c3c799bf9e2639de44391e7f524d229b2b55f5b1ea94b2bf7da42f7243dddd"
          ],
          "data": "0x0000000000000000000000000000000000000000000000000000000000000020000000000000000000000000000000000000000000000000ccf0a31a221f3c9b000000000000000000000000e194e5b6a71f4dd5f6dea01df3201710e6cbceae000000000000000000000000af67bdc24a0311c8cb450e3ea00eab7073321e99000000000000000000000000000000000000000000000000000000000000006a00000000000000000000000000000000000000000000000000000000000e7ef0000000000000000000000000000000000000000000000000000000000000000000000000000000000000000000000000000000000000000000000000000000010000000000000000000000000b9d5d9136855f6fec3c0993fee6e9ce8a2978460000000000000000000000000000000000000000000000003bc67fea39419fbf00000000000000000000000000000000000000000000000000000000000001a000000000000000000000000000000000000000000000000000000000000002200000000000000000000000000000000000000000000000000000000000000240262314f26a09f347a9f090a9f1f3e31a91c124c2cd965d043946709881207bea000000000000000000000000000000000000000000000000000000000000004440c10f190000000000000000000000007e8d7bfd6cc6b05d056f2e46860d95038f2e323400000000000000000000000000000000000000000000000000000000000000010000000000000000000000000000000000000000000000000000000000000000000000000000000000000000000000000000000000000000000000000000000000000000000000000000000000000000000000000000000000000000",
          "blockHash": "0x90b243b4eac08f930372d987bf3299f652cc1337326afe73cddbbe555dce81c2",
          "blockNumber": "0x2298394",
          "transactionHash": "0x631757fa76a4bac637f533c19b53e57a76ab652d39334d5518b1613f5ece8b51",
          "transactionIndex": "0x1",
          "logIndex": "0x5",
          "removed": false
        }
      ],
      "logsBloom": "0x01000000000000000001000000000000000000000000000000000000000000000000000000000000000000000000000000000000000000000000000000240000000000000000000000000008000100000000000000040000000000000000000000000000020000000000000000000800001000000008000000000010000000000008000000000000000000000000000000000000000000000000000000000000020000000000000600000000000000000080000000010804000900100000000000000002000000000000000000000000000000000040000800000000000060000010000000000000000000000000000004040200000000000000000100000000",
      "type": "0x2",
      "transactionHash": "0x631757fa76a4bac637f533c19b53e57a76ab652d39334d5518b1613f5ece8b51",
      "transactionIndex": "0x1",
      "blockHash": "0x90b243b4eac08f930372d987bf3299f652cc1337326afe73cddbbe555dce81c2",
      "blockNumber": "0x2298394",
      "gasUsed": "0x2c8db",
      "effectiveGasPrice": "0x6fc23ac00",
      "from": "0x7E8d7BFd6cc6B05d056f2E46860D95038f2E3234",
      "to": "0xe194E5B6A71f4dd5f6dEA01DF3201710e6CBceAE",
      "contractAddress": null
    }
  ],
  "libraries": [],
  "pending": [],
  "returns": {},
  "timestamp": 1728845837,
  "chain": 43113,
  "commit": "25d7e58"
}