{
  "transactions": [
    {
      "hash": "0x05a844dde48039971fdeda9815c5c5562936a955c13024ad6ab7a9eeb0f8e5cf",
      "transactionType": "CALL",
      "contractName": null,
      "contractAddress": "0x0b9d5d9136855f6fec3c0993fee6e9ce8a297846",
      "function": "transfer(address,uint256)",
      "arguments": [
        "0x9Eec80b77607858b9A3b42DB02366f2961C12a14",
        "3000000000000000000"
      ],
      "transaction": {
        "from": "0x7e8d7bfd6cc6b05d056f2e46860d95038f2e3234",
        "to": "0x0b9d5d9136855f6fec3c0993fee6e9ce8a297846",
        "gas": "0x1287c",
        "value": "0x0",
        "input": "0xa9059cbb0000000000000000000000009eec80b77607858b9a3b42db02366f2961c12a1400000000000000000000000000000000000000000000000029a2241af62c0000",
        "nonce": "0x242",
        "chainId": "0xa869"
      },
      "additionalContracts": [],
      "isFixedGasLimit": false
    },
    {
      "hash": "0xbeca537d426b1a1c69a96983f122331945c7ccfc14b9fb28e1d4dac97ab96f0e",
      "transactionType": "CALL",
      "contractName": null,
      "contractAddress": "0x9eec80b77607858b9a3b42db02366f2961c12a14",
      "function": "mint(address,uint256)",
      "arguments": [
        "0x9Eec80b77607858b9A3b42DB02366f2961C12a14",
        "1"
      ],
      "transaction": {
        "from": "0x7e8d7bfd6cc6b05d056f2e46860d95038f2e3234",
        "to": "0x9eec80b77607858b9a3b42db02366f2961c12a14",
        "gas": "0x172e6",
        "value": "0x0",
        "input": "0x40c10f190000000000000000000000009eec80b77607858b9a3b42db02366f2961c12a140000000000000000000000000000000000000000000000000000000000000001",
        "nonce": "0x243",
        "chainId": "0xa869"
      },
      "additionalContracts": [],
      "isFixedGasLimit": false
    },
    {
      "hash": "0x6d793c0de033b7ded407e80ac659cb2a18261acd9c4e8dd56ad6ef469d578e37",
      "transactionType": "CALL",
      "contractName": null,
      "contractAddress": "0x9eec80b77607858b9a3b42db02366f2961c12a14",
      "function": "transferCrossChain(address,uint256,uint64)",
      "arguments": [
        "0xC200903309116808252a08e3488Cfb864c3f27D7",
        "1",
        "16015286601757825753"
      ],
      "transaction": {
        "from": "0x7e8d7bfd6cc6b05d056f2e46860d95038f2e3234",
        "to": "0x9eec80b77607858b9a3b42db02366f2961c12a14",
        "gas": "0x3c02e",
        "value": "0x0",
        "input": "0xb917bbcd000000000000000000000000c200903309116808252a08e3488cfb864c3f27d70000000000000000000000000000000000000000000000000000000000000001000000000000000000000000000000000000000000000000de41ba4fc9d91ad9",
        "nonce": "0x244",
        "chainId": "0xa869"
      },
      "additionalContracts": [],
      "isFixedGasLimit": false
    }
  ],
  "receipts": [
    {
      "status": "0x1",
      "cumulativeGasUsed": "0xcaba",
      "logs": [
        {
          "address": "0x0b9d5d9136855f6fec3c0993fee6e9ce8a297846",
          "topics": [
            "0xddf252ad1be2c89b69c2b068fc378daa952ba7f163c4a11628f55a4df523b3ef",
            "0x0000000000000000000000007e8d7bfd6cc6b05d056f2e46860d95038f2e3234",
            "0x0000000000000000000000009eec80b77607858b9a3b42db02366f2961c12a14"
          ],
          "data": "0x00000000000000000000000000000000000000000000000029a2241af62c0000",
          "blockHash": "0xa9e53488e276e17d79cbb4b6383436f3b92c69dcbeb90c3ba5b5e24e048104fe",
          "blockNumber": "0x2296f03",
          "transactionHash": "0x05a844dde48039971fdeda9815c5c5562936a955c13024ad6ab7a9eeb0f8e5cf",
          "transactionIndex": "0x0",
          "logIndex": "0x0",
          "removed": false
        }
      ],
      "logsBloom": "0x01000000000000000000000000000000002000000000000000000000000000000000000000000000000000000000000000000000000000000000000000000000000000004000000000000008000000000000000000801000000000000000000000000004000000000000000000000000000000000000000000000010000000000000000000000000000000000000000000000000000000000000000000000000000000000000000200000000000000000000000000001000000000000000000000000002000000000000000000000000000000000000000800000000000000000000000000000000000000000000000000000000000000000000000000000000",
      "type": "0x2",
      "transactionHash": "0x05a844dde48039971fdeda9815c5c5562936a955c13024ad6ab7a9eeb0f8e5cf",
      "transactionIndex": "0x0",
      "blockHash": "0xa9e53488e276e17d79cbb4b6383436f3b92c69dcbeb90c3ba5b5e24e048104fe",
      "blockNumber": "0x2296f03",
      "gasUsed": "0xcaba",
      "effectiveGasPrice": "0x6fc23ac00",
      "from": "0x7e8d7bfd6cc6b05d056f2e46860d95038f2e3234",
      "to": "0x0b9d5d9136855f6fec3c0993fee6e9ce8a297846",
      "contractAddress": null
    },
    {
      "status": "0x1",
      "cumulativeGasUsed": "0x10c87",
      "logs": [
        {
          "address": "0x9eec80b77607858b9a3b42db02366f2961c12a14",
          "topics": [
            "0xddf252ad1be2c89b69c2b068fc378daa952ba7f163c4a11628f55a4df523b3ef",
            "0x0000000000000000000000000000000000000000000000000000000000000000",
            "0x0000000000000000000000009eec80b77607858b9a3b42db02366f2961c12a14",
            "0x0000000000000000000000000000000000000000000000000000000000000001"
          ],
          "data": "0x",
          "blockHash": "0x9b12cdea39d721d59370d95259f0916de0681d1a49db49fe2b02b915b50b1c29",
          "blockNumber": "0x2296f04",
          "transactionHash": "0xbeca537d426b1a1c69a96983f122331945c7ccfc14b9fb28e1d4dac97ab96f0e",
          "transactionIndex": "0x0",
          "logIndex": "0x0",
          "removed": false
        }
      ],
      "logsBloom": "0x00000000000000000000000000000000002000000000000000000000000000000000000000000000008000000000000000000000000000000000000000440000000000000000000000000008000000000000000000040000000000000000000000000004020000000000000000000800000000000000000000000012000000000000000000000000000000000000000000000000000000000000000000000000000000000000000000000000000000000000000000001000000000000000000000000002000000000000000000000000000000000000000000000000000060000000000000000000000000000000000000000000000000000000000000000000",
      "type": "0x2",
      "transactionHash": "0xbeca537d426b1a1c69a96983f122331945c7ccfc14b9fb28e1d4dac97ab96f0e",
      "transactionIndex": "0x0",
      "blockHash": "0x9b12cdea39d721d59370d95259f0916de0681d1a49db49fe2b02b915b50b1c29",
      "blockNumber": "0x2296f04",
      "gasUsed": "0x10c87",
      "effectiveGasPrice": "0x6fc23ac00",
      "from": "0x7e8d7bfd6cc6b05d056f2e46860d95038f2e3234",
      "to": "0x9eec80b77607858b9a3b42db02366f2961c12a14",
      "contractAddress": null
    },
    {
      "status": "0x1",
      "cumulativeGasUsed": "0x3d550",
      "logs": [
        {
          "address": "0x0b9d5d9136855f6fec3c0993fee6e9ce8a297846",
          "topics": [
            "0x8c5be1e5ebec7d5bd14f71427d1e84f3dd0314c0f7b2291e5b200ac8c7c3b925",
            "0x0000000000000000000000009eec80b77607858b9a3b42db02366f2961c12a14",
            "0x000000000000000000000000f694e193200268f9a4868e4aa017a0118c9a8177"
          ],
          "data": "0x0000000000000000000000000000000000000000000000001ebb7de19e705ad9",
          "blockHash": "0x9b12cdea39d721d59370d95259f0916de0681d1a49db49fe2b02b915b50b1c29",
          "blockNumber": "0x2296f04",
          "transactionHash": "0x6d793c0de033b7ded407e80ac659cb2a18261acd9c4e8dd56ad6ef469d578e37",
          "transactionIndex": "0x1",
          "logIndex": "0x1",
          "removed": false
        },
        {
          "address": "0x9eec80b77607858b9a3b42db02366f2961c12a14",
          "topics": [
            "0xddf252ad1be2c89b69c2b068fc378daa952ba7f163c4a11628f55a4df523b3ef",
            "0x0000000000000000000000009eec80b77607858b9a3b42db02366f2961c12a14",
            "0x0000000000000000000000000000000000000000000000000000000000000000",
            "0x0000000000000000000000000000000000000000000000000000000000000001"
          ],
          "data": "0x",
          "blockHash": "0x9b12cdea39d721d59370d95259f0916de0681d1a49db49fe2b02b915b50b1c29",
          "blockNumber": "0x2296f04",
          "transactionHash": "0x6d793c0de033b7ded407e80ac659cb2a18261acd9c4e8dd56ad6ef469d578e37",
          "transactionIndex": "0x1",
          "logIndex": "0x2",
          "removed": false
        },
        {
          "address": "0x0b9d5d9136855f6fec3c0993fee6e9ce8a297846",
          "topics": [
            "0xddf252ad1be2c89b69c2b068fc378daa952ba7f163c4a11628f55a4df523b3ef",
            "0x0000000000000000000000009eec80b77607858b9a3b42db02366f2961c12a14",
            "0x00000000000000000000000075b9a75ee1ffef6be7c4f842a041de7c6153cf4e"
          ],
          "data": "0x0000000000000000000000000000000000000000000000001ebb7de19e705ad9",
          "blockHash": "0x9b12cdea39d721d59370d95259f0916de0681d1a49db49fe2b02b915b50b1c29",
          "blockNumber": "0x2296f04",
          "transactionHash": "0x6d793c0de033b7ded407e80ac659cb2a18261acd9c4e8dd56ad6ef469d578e37",
          "transactionIndex": "0x1",
          "logIndex": "0x3",
          "removed": false
        },
        {
          "address": "0x75b9a75ee1ffef6be7c4f842a041de7c6153cf4e",
          "topics": [
            "0xd0c3c799bf9e2639de44391e7f524d229b2b55f5b1ea94b2bf7da42f7243dddd"
          ],
          "data": "0x0000000000000000000000000000000000000000000000000000000000000020000000000000000000000000000000000000000000000000ccf0a31a221f3c9b0000000000000000000000009eec80b77607858b9a3b42db02366f2961c12a14000000000000000000000000c200903309116808252a08e3488cfb864c3f27d7000000000000000000000000000000000000000000000000000000000000006600000000000000000000000000000000000000000000000000000000000e7ef0000000000000000000000000000000000000000000000000000000000000000000000000000000000000000000000000000000000000000000000000000000010000000000000000000000000b9d5d9136855f6fec3c0993fee6e9ce8a2978460000000000000000000000000000000000000000000000001ebb7de19e705ad900000000000000000000000000000000000000000000000000000000000001a0000000000000000000000000000000000000000000000000000000000000022000000000000000000000000000000000000000000000000000000000000002406f997627c50c3f35dd7c4b9e026be243834bfbb9af678e6ab0d1463683e7bf3d000000000000000000000000000000000000000000000000000000000000004440c10f190000000000000000000000007e8d7bfd6cc6b05d056f2e46860d95038f2e323400000000000000000000000000000000000000000000000000000000000000010000000000000000000000000000000000000000000000000000000000000000000000000000000000000000000000000000000000000000000000000000000000000000000000000000000000000000000000000000000000000000",
          "blockHash": "0x9b12cdea39d721d59370d95259f0916de0681d1a49db49fe2b02b915b50b1c29",
          "blockNumber": "0x2296f04",
          "transactionHash": "0x6d793c0de033b7ded407e80ac659cb2a18261acd9c4e8dd56ad6ef469d578e37",
          "transactionIndex": "0x1",
          "logIndex": "0x4",
          "removed": false
        }
      ],
      "logsBloom": "0x01000000000000000001000000000000002000000000000000000000000000000000000000000000008000000000000000000000000000000000000000640000000000000000000000000008000000000000000000040000000000000000000000000004020000000000000000000800000000000008000000000012000000000008000000000000000000000000000000000000000000000000000000000000020000000000000600000000000000000080000000001800000100100000000000000002000000000000000000000000000000000040000800000000000060000010000000000000000000000000000004000200000000000000000100000000",
      "type": "0x2",
      "transactionHash": "0x6d793c0de033b7ded407e80ac659cb2a18261acd9c4e8dd56ad6ef469d578e37",
      "transactionIndex": "0x1",
      "blockHash": "0x9b12cdea39d721d59370d95259f0916de0681d1a49db49fe2b02b915b50b1c29",
      "blockNumber": "0x2296f04",
      "gasUsed": "0x2c8c9",
      "effectiveGasPrice": "0x6fc23ac00",
      "from": "0x7e8d7bfd6cc6b05d056f2e46860d95038f2e3234",
      "to": "0x9eec80b77607858b9a3b42db02366f2961c12a14",
      "contractAddress": null
    }
  ],
  "libraries": [],
  "pending": [],
  "returns": {},
  "timestamp": 1728802129,
  "chain": 43113,
  "commit": "25d7e58"
}