{
  "transactions": [
    {
      "hash": "0xd18db13cb516d005e76ee348b82d3721406883182a6ae42864791fec6aa175f8",
      "transactionType": "CALL",
      "contractName": null,
      "contractAddress": "0x59c3a88c5f98598842242464284c1daa499393b7",
      "function": "mint(address,uint256)",
      "arguments": [
        "0x59C3a88C5f98598842242464284c1DAA499393B7",
        "3"
      ],
      "transaction": {
        "from": "0x7e8d7bfd6cc6b05d056f2e46860d95038f2e3234",
        "to": "0x59c3a88c5f98598842242464284c1daa499393b7",
        "gas": "0x172e6",
        "value": "0x0",
        "input": "0x40c10f1900000000000000000000000059c3a88c5f98598842242464284c1daa499393b70000000000000000000000000000000000000000000000000000000000000003",
        "nonce": "0x22f",
        "chainId": "0xa869"
      },
      "additionalContracts": [],
      "isFixedGasLimit": false
    }
  ],
  "receipts": [
    {
      "status": "0x1",
      "cumulativeGasUsed": "0x10c87",
      "logs": [
        {
          "address": "0x59c3a88c5f98598842242464284c1daa499393b7",
          "topics": [
            "0xddf252ad1be2c89b69c2b068fc378daa952ba7f163c4a11628f55a4df523b3ef",
            "0x0000000000000000000000000000000000000000000000000000000000000000",
            "0x00000000000000000000000059c3a88c5f98598842242464284c1daa499393b7",
            "0x0000000000000000000000000000000000000000000000000000000000000003"
          ],
          "data": "0x",
          "blockHash": "0x1d8482c9ae46b08235bac025a1f01d62356864c5a7d108030435bbdc591a9d4a",
          "blockNumber": "0x2296dd3",
          "transactionHash": "0xd18db13cb516d005e76ee348b82d3721406883182a6ae42864791fec6aa175f8",
          "transactionIndex": "0x0",
          "logIndex": "0x0",
          "removed": false
        }
      ],
      "logsBloom": "0x00000000000000000000000000000000000000000000000000000000000000000000000000000000000000000000000000000000020000000000000000004000000000002000000000000008000000000000100000010000000000000000000008000000020000000000000000000800000000000000000000000010000000000000000000000000000000000000000000000000000000000000000000000000000000000000000000000000000000000000000000800000000000000000400000000002000000000000000000000000000000000400000000000000000020000000000000000000000000000000000000000000000000000000000000000000",
      "type": "0x2",
      "transactionHash": "0xd18db13cb516d005e76ee348b82d3721406883182a6ae42864791fec6aa175f8",
      "transactionIndex": "0x0",
      "blockHash": "0x1d8482c9ae46b08235bac025a1f01d62356864c5a7d108030435bbdc591a9d4a",
      "blockNumber": "0x2296dd3",
      "gasUsed": "0x10c87",
      "effectiveGasPrice": "0x6fc23ac00",
      "from": "0x7e8d7bfd6cc6b05d056f2e46860d95038f2e3234",
      "to": "0x59c3a88c5f98598842242464284c1daa499393b7",
      "contractAddress": null
    }
  ],
  "libraries": [],
  "pending": [],
  "returns": {},
  "timestamp": 1728798907,
  "chain": 43113,
  "commit": "25d7e58"
}