{
  "transactions": [
    {
      "hash": "0xd59784e4b0959b7e8e412c94c1f1fd817f1a7cc587c15506320f7cb69076d967",
      "transactionType": "CALL",
      "contractName": null,
      "contractAddress": "0x779877A7B0D9E8603169DdbD7836e478b4624789",
      "function": "transfer(address,uint256)",
      "arguments": [
        "0xAF67BDC24A0311c8cB450E3ea00eAb7073321E99",
        "5000000000000000000"
      ],
      "transaction": {
        "from": "0x7E8d7BFd6cc6B05d056f2E46860D95038f2E3234",
        "to": "0x779877A7B0D9E8603169DdbD7836e478b4624789",
        "gas": "0x1271d",
        "value": "0x0",
        "input": "0xa9059cbb000000000000000000000000af67bdc24a0311c8cb450e3ea00eab7073321e990000000000000000000000000000000000000000000000004563918244f40000",
        "nonce": "0x267",
        "chainId": "0xaa36a7"
      },
      "additionalContracts": [],
      "isFixedGasLimit": false
    },
    {
      "hash": "0xc4703d91d32fc35402df28111ea9bff9ee470cc8e828636d043c2ad9e0e73105",
      "transactionType": "CALL",
      "contractName": null,
      "contractAddress": "0xAF67BDC24A0311c8cB450E3ea00eAb7073321E99",
      "function": "transferCrossChain(address,uint256,uint64)",
      "arguments": [
        "0xe194E5B6A71f4dd5f6dEA01DF3201710e6CBceAE",
        "1",
        "14767482510784806043"
      ],
      "transaction": {
        "from": "0x7E8d7BFd6cc6B05d056f2E46860D95038f2E3234",
        "to": "0xAF67BDC24A0311c8cB450E3ea00eAb7073321E99",
        "gas": "0x3bcf2",
        "value": "0x0",
        "input": "0xb917bbcd000000000000000000000000e194e5b6a71f4dd5f6dea01df3201710e6cbceae0000000000000000000000000000000000000000000000000000000000000001000000000000000000000000000000000000000000000000ccf0a31a221f3c9b",
        "nonce": "0x268",
        "chainId": "0xaa36a7"
      },
      "additionalContracts": [],
      "isFixedGasLimit": false
    }
  ],
  "receipts": [
    {
      "status": "0x1",
      "cumulativeGasUsed": "0x9dd2f1",
      "logs": [
        {
          "address": "0x779877A7B0D9E8603169DdbD7836e478b4624789",
          "topics": [
            "0xddf252ad1be2c89b69c2b068fc378daa952ba7f163c4a11628f55a4df523b3ef",
            "0x0000000000000000000000007e8d7bfd6cc6b05d056f2e46860d95038f2e3234",
            "0x000000000000000000000000af67bdc24a0311c8cb450e3ea00eab7073321e99"
          ],
          "data": "0x0000000000000000000000000000000000000000000000004563918244f40000",
          "blockHash": "0xaea48dfee20159aabe146b1570c272eedb7ef7e8789cddecdb330783e8664b97",
          "blockNumber": "0x68d3cd",
          "transactionHash": "0xd59784e4b0959b7e8e412c94c1f1fd817f1a7cc587c15506320f7cb69076d967",
          "transactionIndex": "0x3d",
          "logIndex": "0x49",
          "removed": false
        }
      ],
      "logsBloom": "0x00000004000000000000000000000000000000000000000000000000000000000000000000000000000000000000000000000000000000000000000000000000000000004000000000000008000000000000000000801000000000000000000000000000000000000000000000000000000000000000000000000010000000000000000000000000000000000000800000000000000000000000000000000000000000000000000000000000000000000000000000000000000000000002000000000002000000000000000000000000000000000000000100000000000000000000000000000000000040004000000000000000000000000000000000000000",
      "type": "0x2",
      "transactionHash": "0xd59784e4b0959b7e8e412c94c1f1fd817f1a7cc587c15506320f7cb69076d967",
      "transactionIndex": "0x3d",
      "blockHash": "0xaea48dfee20159aabe146b1570c272eedb7ef7e8789cddecdb330783e8664b97",
      "blockNumber": "0x68d3cd",
      "gasUsed": "0xc9ca",
      "effectiveGasPrice": "0x1ca6fdc03",
      "from": "0x7E8d7BFd6cc6B05d056f2E46860D95038f2E3234",
      "to": "0x779877A7B0D9E8603169DdbD7836e478b4624789",
      "contractAddress": null
    },
    {
      "status": "0x1",
      "cumulativeGasUsed": "0xa06144",
      "logs": [
        {
          "address": "0x779877A7B0D9E8603169DdbD7836e478b4624789",
          "topics": [
            "0x8c5be1e5ebec7d5bd14f71427d1e84f3dd0314c0f7b2291e5b200ac8c7c3b925",
            "0x000000000000000000000000af67bdc24a0311c8cb450e3ea00eab7073321e99",
            "0x0000000000000000000000000bf3de8c5d3e8a2b34d2beeb17abfcebaf363a59"
          ],
          "data": "0x00000000000000000000000000000000000000000000000001afb72b2f2acc09",
          "blockHash": "0xaea48dfee20159aabe146b1570c272eedb7ef7e8789cddecdb330783e8664b97",
          "blockNumber": "0x68d3cd",
          "transactionHash": "0xc4703d91d32fc35402df28111ea9bff9ee470cc8e828636d043c2ad9e0e73105",
          "transactionIndex": "0x3e",
          "logIndex": "0x4a",
          "removed": false
        },
        {
          "address": "0xAF67BDC24A0311c8cB450E3ea00eAb7073321E99",
          "topics": [
            "0xddf252ad1be2c89b69c2b068fc378daa952ba7f163c4a11628f55a4df523b3ef",
            "0x0000000000000000000000007e8d7bfd6cc6b05d056f2e46860d95038f2e3234",
            "0x0000000000000000000000000000000000000000000000000000000000000000",
            "0x0000000000000000000000000000000000000000000000000000000000000001"
          ],
          "data": "0x",
          "blockHash": "0xaea48dfee20159aabe146b1570c272eedb7ef7e8789cddecdb330783e8664b97",
          "blockNumber": "0x68d3cd",
          "transactionHash": "0xc4703d91d32fc35402df28111ea9bff9ee470cc8e828636d043c2ad9e0e73105",
          "transactionIndex": "0x3e",
          "logIndex": "0x4b",
          "removed": false
        },
        {
          "address": "0x779877A7B0D9E8603169DdbD7836e478b4624789",
          "topics": [
            "0xddf252ad1be2c89b69c2b068fc378daa952ba7f163c4a11628f55a4df523b3ef",
            "0x000000000000000000000000af67bdc24a0311c8cb450e3ea00eab7073321e99",
            "0x00000000000000000000000012492154714fbd28f28219f6fc4315d19de1025b"
          ],
          "data": "0x00000000000000000000000000000000000000000000000001afb72b2f2acc09",
          "blockHash": "0xaea48dfee20159aabe146b1570c272eedb7ef7e8789cddecdb330783e8664b97",
          "blockNumber": "0x68d3cd",
          "transactionHash": "0xc4703d91d32fc35402df28111ea9bff9ee470cc8e828636d043c2ad9e0e73105",
          "transactionIndex": "0x3e",
          "logIndex": "0x4c",
          "removed": false
        },
        {
          "address": "0x779877A7B0D9E8603169DdbD7836e478b4624789",
          "topics": [
            "0x8c5be1e5ebec7d5bd14f71427d1e84f3dd0314c0f7b2291e5b200ac8c7c3b925",
            "0x000000000000000000000000af67bdc24a0311c8cb450e3ea00eab7073321e99",
            "0x0000000000000000000000000bf3de8c5d3e8a2b34d2beeb17abfcebaf363a59"
          ],
          "data": "0x0000000000000000000000000000000000000000000000000000000000000000",
          "blockHash": "0xaea48dfee20159aabe146b1570c272eedb7ef7e8789cddecdb330783e8664b97",
          "blockNumber": "0x68d3cd",
          "transactionHash": "0xc4703d91d32fc35402df28111ea9bff9ee470cc8e828636d043c2ad9e0e73105",
          "transactionIndex": "0x3e",
          "logIndex": "0x4d",
          "removed": false
        },
        {
          "address": "0x12492154714fBD28F28219f6fc4315d19de1025B",
          "topics": [
            "0xd0c3c799bf9e2639de44391e7f524d229b2b55f5b1ea94b2bf7da42f7243dddd"
          ],
          "data": "0x0000000000000000000000000000000000000000000000000000000000000020000000000000000000000000000000000000000000000000de41ba4fc9d91ad9000000000000000000000000af67bdc24a0311c8cb450e3ea00eab7073321e99000000000000000000000000e194e5b6a71f4dd5f6dea01df3201710e6cbceae00000000000000000000000000000000000000000000000000000000000000b900000000000000000000000000000000000000000000000000000000000e7ef000000000000000000000000000000000000000000000000000000000000000000000000000000000000000000000000000000000000000000000000000000001000000000000000000000000779877a7b0d9e8603169ddbd7836e478b462478900000000000000000000000000000000000000000000000001afb72b2f2acc0900000000000000000000000000000000000000000000000000000000000001a0000000000000000000000000000000000000000000000000000000000000022000000000000000000000000000000000000000000000000000000000000002409a40a361266211d51245fc1f1f9d73f0419f3e7c1ea5d66968c05db8bd9c90f4000000000000000000000000000000000000000000000000000000000000004440c10f190000000000000000000000007e8d7bfd6cc6b05d056f2e46860d95038f2e323400000000000000000000000000000000000000000000000000000000000000010000000000000000000000000000000000000000000000000000000000000000000000000000000000000000000000000000000000000000000000000000000000000000000000000000000000000000000000000000000000000000",
          "blockHash": "0xaea48dfee20159aabe146b1570c272eedb7ef7e8789cddecdb330783e8664b97",
          "blockNumber": "0x68d3cd",
          "transactionHash": "0xc4703d91d32fc35402df28111ea9bff9ee470cc8e828636d043c2ad9e0e73105",
          "transactionIndex": "0x3e",
          "logIndex": "0x4e",
          "removed": false
        }
      ],
      "logsBloom": "0x00000004000040000000000000000000000400000000000000000000000000000000000000000000000000000000000800000000000000000000000000240000000000004000000000000008000000000000000000841000000000000100000000000000020100000000000400000800000000000000000000000010000000000000000008000000000000002000800000000000000000000000000000000000020000000000080400000000000000000000000000000000000100000002000000000002000000000000000800000004000000000000000100000000000060200010000000000000000040004000000004000000000000000000000000000000",
      "type": "0x2",
      "transactionHash": "0xc4703d91d32fc35402df28111ea9bff9ee470cc8e828636d043c2ad9e0e73105",
      "transactionIndex": "0x3e",
      "blockHash": "0xaea48dfee20159aabe146b1570c272eedb7ef7e8789cddecdb330783e8664b97",
      "blockNumber": "0x68d3cd",
      "gasUsed": "0x28e53",
      "effectiveGasPrice": "0x1ca6fdc03",
      "from": "0x7E8d7BFd6cc6B05d056f2E46860D95038f2E3234",
      "to": "0xAF67BDC24A0311c8cB450E3ea00eAb7073321E99",
      "contractAddress": null
    }
  ],
  "libraries": [],
  "pending": [],
  "returns": {},
  "timestamp": 1728846621,
  "chain": 11155111,
  "commit": "25d7e58"
}